:100000000C94F90E0C942A0F0C942A0F0C942A0FBE
:100010000C942A0F0C942A0F0C942A0F0C942A0F7C
:100020000C942A0F0C942A0F0C942A0F0C942A0F6C
:100030000C942A0F0C942A0F0C942A0F0C942A0F5C
:100040000C942A0F0C94E37B0C942A0F0C942A0F27
:100050000C942A0F0C942A0F0C946A370C94D59C9C
:100060000C942A0F0C94012D0C94F72C0C942A0F4D
:100070000C942A0F0C942A0F0C942A0F0C942A0F1C
:100080000C9461260C942A0F0C942A0F0C942A0FBE
:100090000C942A0F0C942A0F0C942A0F0C942A0FFC
:1000A0000C942A0F0C942A0F0C9433260C942A0FCC
:1000B0000C942A0F0C942A0F0C942A0F0C942A0FDC
:1000C0000C942A0F0C942A0F0C942A0F0C942A0FCC
:1000D0000C942A0F0C942A0F0C942A0F0C942A0FBC
:1000E0000C942A0F962A9B2AA02AAA2AB42A2D2BDE
:1000F000BE2AC62ACE2AD82AE22AEC2AFB2A052BB7
:100100002D2B0F2B192B232B9539573A5C3A6F3A2D
:10011000743A873A933A8539B656B956A856AC56CA
:10012000B056F056BD56C156C756CB56CF56D556CB
:10013000D956DD56F056E356E756EB56084AD73BFC
:100140003BCE016E84BCBFFDC12F3D6C74319ABDA6
:1001500056833DDA3D00C77F11BED9E4BB4C3E91CA
:100160006BAAAABE000000803F05A84CCDB2D44EB9
:10017000B93836A9020C50B9918688083CA6AAAABB
:100180002ABE000000803F000C94CB560C94C62A77
:100190000C94962A0C94D5560C94AC560C94873A31
:1001A0000C94B42A0C944DA50C94E7560C94CE2ACA
:1001B0000C942D2B0C94CF560C94052B0C94B65606
:1001C0000C94E3560C94573A0C94192B0C940F2B67
:1001D0000C946F3A0C94FB2A0C94D9560C949B2ADD
:1001E0000C94DD560C94F0560C94A8560C94C15601
:1001F0000C94D82A0C9495390C94EB560C94933AA1
:100200000C94B9560C94EC2A0C9473A40C94BD561F
:100210000C9485390C94232B0C94E22A0C94743A98
:100220000C94AA2A0C94BE2A0C94C7560C945C3ADF
:100230000C94A02A0C94B0564E414E494E49545944
:10024000494E46CDCCCC3D0AD7233C17B7D13877A1
:10025000CC2B329595E6241FB14F0A0000204100B7
:1002600000C84200401C4620BCBE4CCA1B0E5AAE01
:10027000C59D74434F4D4D554E49434154494F4ED2
:100280000044525952554E004552524F5253004964
:100290004E464F004543484F005A2050726F6265EA
:1002A0002050617374204265640A004D65736820B4
:1002B000706F696E74206F7574206F662072616E46
:1002C00067650A00456E642066696C65206C697319
:1002D000740A00426567696E2066696C65206C6906
:1002E00073740A004E6F206D656469610A00286EA0
:1002F0006F2066696C65290043757272656E7420A3
:1003000066696C653A20005344207072696E7469A6
:100310006E67206279746520004E6F74205344200C
:100320007072696E74696E670A0044656C65746901
:100330006F6E206661696C65642C2046696C653A55
:10034000200046696C652064656C657465643A00DC
:1003500025697920256964202569682025696D2033
:10036000256973005072696E742074696D653A2056
:10037000006F66660044454255473A004D313132C0
:100380002053687574646F776E004D31313320539C
:10039000004348414D4245525F54454D50455241FE
:1003A0005455524500424142595354455050494ECC
:1003B000470041524353004D4F54494F4E5F4D4FFC
:1003C00044455300544845524D414C5F50524F54A0
:1003D000454354494F4E004C4F4E475F46494C45AC
:1003E0004E414D45004155544F5245504F52545F78
:1003F00053445F5354415455530053444341524472
:100400000050524F4D50545F535550504F5254006E
:10041000454D455247454E43595F50415253455211
:1004200000434153455F4C494748545F4252494756
:1004300048544E45535300544F47474C455F4C4931
:100440004748545300534F4654574152455F504F0D
:10045000574552004255494C445F50455243454E22
:1004600054004C4556454C494E475F444154410069
:100470005A5F50524F42450052554E4F555400411D
:1004800055544F4C4556454C005052494E545F4AC6
:100490004F420050524F4752455353004155544F1D
:1004A0005245504F52545F54454D5000564F4C5595
:1004B0004D455452494300454550524F4D00424925
:1004C0004E4152595F46494C455F5452414E534646
:1004D00045520053455249414C5F584F4E5F584F6B
:1004E0004646004649524D574152455F4E414D45A3
:1004F0003A4D61726C696E20322E302E372E3220CA
:100500002841707220313420323032312031373A74
:1005100035333A35372920534F555243455F434FC2
:1005200044455F55524C3A68747470733A2F2F6784
:1005300069746875622E636F6D2F4D61726C696EA0
:100540004669726D776172652F4D61726C696E20BC
:1005500050524F544F434F4C5F56455253494F4EA4
:100560003A312E30204D414348494E455F54595051
:10057000453A3344205072696E7465722045585470
:1005800052554445525F434F554E543A32205555CB
:1005900049443A63656465326132662D34316132B3
:1005A0002D343734382D396231322D633535633689
:1005B000326633363766660A002F2F2000416363A8
:1005C000656C65726174696F6E3A205000574152D4
:1005D0004E494E4721204C6F77205A204A65726B56
:1005E000206D6179206C65616420746F20756E7771
:1005F000616E746564207061757365732E0A0020E6
:10060000204D61783A200020204D696E3A20005339
:100610006F667420656E6473746F70733A20004661
:10062000523A0020466C6F773A200020536572766C
:100630006F200020643A0020693A0020703A00647C
:1006400069730043290A0061626C656420286D6942
:100650006E2074656D702000436F6C642065787443
:1006600072756465732061726520004D34323120EB
:10067000696E636F727265637420706172616D651B
:100680007465722075736167650A00546F6F206628
:1006900061722066726F6D207265666572656E6349
:1006A0006520706F696E740A00454550524F4D20A9
:1006B00064697361626C65640A003F5A206F7574E7
:1006C000206F662072616E67652028003F59206F99
:1006D0007574206F662072616E676520282D00207A
:1006E000746F20003F58206F7574206F6620726110
:1006F0006E676520282D0050726F6265204F666618
:100700007365742058004D383400446F6E65207056
:1007100072696E74696E672066696C650A004D3790
:1007200037004D33310094028F0288028102730238
:100730002121204B494C4C20636175736564206214
:100740007920746F6F206D75636820696E616374C2
:100750006976652074696D65202D206375727265F8
:100760006E7420636F6D6D616E643A20004D34319C
:1007700030004D313132004D313038005072696EE9
:100780007465722073746F70706564206475652081
:10079000746F206572726F72732E204669782074B0
:1007A0006865206572726F7220616E642075736572
:1007B000204D39393920746F2072657374617274F9
:1007C0002E202854656D706572617475726520699C
:1007D000732072657365742E2053657420697420CC
:1007E00061667465722072657374617274696E6794
:1007F000290A004E6F20436865636B73756D20771F
:10080000697468206C696E65206E756D6265722C06
:10081000204C617374204C696E653A2000636865F2
:10082000636B73756D206D69736D617463682C20E3
:100830004C617374204C696E653A20004C696E659A
:10084000204E756D626572206973206E6F74204C46
:10085000617374204C696E65204E756D6265722BF4
:10086000312C204C617374204C696E653A20004D28
:100870003131300053442072656164206572726FBB
:10088000720A00627573793A20706175736564202D
:10089000666F7220696E7075740A00627573793ABA
:1008A0002070617573656420666F72207573657260
:1008B0000A00627573793A2070726F6365737369A9
:1008C0006E670A005072696E7465722068616C749C
:1008D00065642E206B696C6C28292063616C6C65E3
:1008E00064210A001000C90210012C0140012201FC
:1008F00070011801B0010E01F00104015002FA006C
:10090000B002F0003003E600D003DC009004D20017
:100910007005C800A006BE000008B400B009AA0017
:10092000D00BA000600E960060118C0000158200B4
:1009300020197800C01D6E00A0226400B0275A0064
:10094000902C500000314600E0343C00103832005A
:10095000903A2800603C1E00A03D1400803E0A0032
:10096000203F00002020506C616E6E6572427566FB
:1009700066657242797465733A2000204672656537
:10098000204D656D6F72793A2000436F6D70696C10
:1009900065643A2041707220313420323032310A9D
:1009A00000204C61737420557064617465643A2052
:1009B000323032302D31302D3135207C204175746C
:1009C000686F723A20286E6F6E652C2064656661D0
:1009D000756C7420636F6E666967290A00322E3069
:1009E0002E372E320A004D61726C696E0020536FF3
:1009F0006674776172652052657365740A002057CA
:100A000061746368646F672052657365740A0020BF
:100A100042726F776E206F75742052657365740A29
:100A2000002045787465726E616C20526573657440
:100A30000A00506F77657255700A004D3234004DD0
:100A40003233202573006175746F25632E6700476C
:100A500032385859004D31303031006572726F7242
:100A60002077726974696E6720746F2066696C659F
:100A70000A00446F6E6520736176696E672066694F
:100A80006C652E0A004D32390020583A00656E64BC
:100A900073746F7073206869743A2000496E7661D0
:100AA0006C69642065787472756465720A004163CC
:100AB000746976652045787472756465723A2000B1
:100AC0007C3C3E5E2B3D3F2F5B5D3B2C2A225C0035
:100AD00020423A0020436F756E7420413A0045323F
:100AE0000042656400453100626564002C20737922
:100AF0007374656D2073746F707065642120486530
:100B0000617465725F49443A200048656174696E9A
:100B100067204661696C65640048656174696E6749
:100B2000206661696C656400544845524D414C2013
:100B300052554E4157415900546865726D616C20A1
:100B400052756E61776179004572723A204D415855
:100B500054454D50004D415854454D5020747269D4
:100B6000676765726564004572723A204D494E545C
:100B7000454D50004D494E54454D502074726967A3
:100B8000676572656400202F002040002042403AD3
:100B90000020403A0070012C0190012701B0012291
:100BA00001C0011D01F00118011002130130020EF5
:100BB000016002090190020401C002FF000003FA73
:100BC000004003F5008003F000D003EB002004E6B2
:100BD000007004E100E004DC004005D700C005D24D
:100BE000004006CD00D006C8008007C3003008BE14
:100BF00000F008B900C009B400B00AAF00B00BAAF9
:100C000000D00CA500000EA000500F9B00C0109655
:100C1000005012910000148C00C0158700B017829C
:100C200000B0197D00D01B7800001E730040206EBC
:100C30000090226900F024640040275F0090295A48
:100C400000E02B5500102E500020304B0010324693
:100C500000E033410090353C0010373700703832E7
:100C600000A0392D00B03A2800A03B2300603C1EB4
:100C700000103D1900903D1400103E0F00703E0A18
:100C800000C03E0500003F0000403FFBFF803FF6F4
:100C9000FFC03FF1FF20746F6F206C6F6E6720659F
:100CA0007874727573696F6E2070726576656E7494
:100CB00065640A0020636F6C6420657874727573D4
:100CC000696F6E2070726576656E7465640A0020C7
:100CD0005A3A200020593A200042656420583A20B0
:100CE0000050726F62696E67204661696C65640AC4
:100CF00000220A00556E6B6E6F776E20636F6D6D0C
:100D0000616E643A20220020453A00205A3A0020C1
:100D1000593A0000000A0B02090C0D0E08070304E3
:100D200001000000000000000000000000000000C2
:100D300000000000000000000000000000000012A1
:100D40001110000000000000000000000000000082
:100D50000000000000000000000000220025002824
:100D6000002B002E003100340002010000050108B4
:100D7000010B0100002100240027002A002D003073
:100D800000330001010000040107010A0105050507
:100D900005070508080808020202020A0A080804F2
:100DA0000404040101010101010101030303030320
:100DB000030303040707070C0C0C0C0C0C0C0C02AF
:100DC00002020206060606060606060B0B0B0B0BB6
:100DD0000B0B0B01021020200808102040102040AF
:100DE00080020102010804020101020408102040EF
:100DF000808040201008040201800402018040200D
:100E00001008040201080402010102040810204035
:100E1000800102040810204080656E71756575655B
:100E2000696E672022006F6B00526573656E643ACD
:100E3000200020573A0023646566696E65204445AA
:100E40004641554C545F004B6420004B6920004BD9
:100E5000702000504944204175746F74756E652090
:100E600066696E69736865642120507574207468C2
:100E700065206C617374204B702C204B6920616E6F
:100E800064204B6420636F6E7374616E74732066AC
:100E9000726F6D2062656C6F7720696E746F20438E
:100EA0006F6E66696775726174696F6E2E680A008D
:100EB000504944204175746F74756E652066616990
:100EC0006C6564212074696D656F75740A000A2071
:100ED000436C617373696320504944200A00204BBE
:100EE000643A2000204B693A2000204B703A2000E1
:100EF0000A204E6F206F76657273686F6F740A00F8
:100F00002054753A2000204B753A2000206D6178FE
:100F10003A2000206D696E3A200020643A200020BB
:100F2000626961733A2000504944204175746F74BE
:100F3000756E652073746172740A005049442041D3
:100F400075746F74756E65206661696C65642120C7
:100F500054656D706572617475726520746F6F2071
:100F6000686967680A00504944204175746F747558
:100F70006E65206661696C6564212042616420654C
:100F800078747275646572206E756D6265720A00A0
:100F900043616E6E6F74206F70656E20737562644E
:100FA0006972200053442063617264206F6B0A00F1
:100FB0006F70656E526F6F74206661696C65640A4C
:100FC00000766F6C756D652E696E69742066616957
:100FD0006C65640A004E6F20534420636172640A9A
:100FE000006F70656E206661696C65642C204669CF
:100FF0006C653A200046696C652073656C656374A6
:1010000065640A002053697A653A200046696C6578
:10101000206F70656E65643A2000454E442053553C
:1010200042524F5554494E450A002220706F7300BA
:101030002220706172656E743A2200535542524FFD
:101040005554494E452043414C4C207461726765AC
:10105000743A220053756263616C6C204F7665723E
:10106000666C6F77004578636565646564206D61C3
:101070007820535542524F5554494E45206465706F
:1010800074683A310A0057726974696E6720746F28
:101090002066696C653A2000667265736800646F4B
:1010A000696E67004E6F7720004F46460A00466122
:1010B0006465204865696768742000426564204C57
:1010C0006576656C696E6720004661696C656420B1
:1010D000746F20656E61626C6520426564204C65AA
:1010E00076656C696E670A00496E76616C6964208A
:1010F0006D6573682E0A0050726F62696E67206DAD
:1011000065736820706F696E7420002028445259FE
:1011100052554E2900473239204175746F2042657F
:1011200064204C6576656C696E67003F20284C2C06
:10113000522C462C4229206F7574206F6620626FF6
:10114000756E64732E0A003F2856296572626F73AC
:1011500065206C6576656C20696D706C617573696E
:10116000626C652028302D34292E0A0042616420EB
:101170005A2076616C75650A004E6F2062696C6951
:101180006E65617220677269640A00204D393220F1
:10119000580020496E76616C6964206578747275B8
:1011A00064657220006F70656E0054524947474570
:1011B000524544007A5F6D696E00795F6D696E001B
:1011C000785F6D696E005265706F7274696E67202A
:1011D000656E6473746F70207374617475730A0044
:1011E000486F6D65202573257325732046697273DA
:1011F0007400486F6D696E67204661696C656400B4
:1012000024F4D43050C38E20C2A24017828B7011B8
:10121000127A910D816CD90AA861E108C758660756
:10122000615143061E4B5D05C145A7041A411104D7
:10123000093D9803713931034036DB026533910271
:10124000D4305402802E1D02632CEE01752AC50194
:10125000B028A001102781018F2564012B244B01A8
:10126000E0223401AC211F018D200D01801FFC0004
:10127000841EED00971DDF00B81CD200E61BC600DF
:10128000201BBC00641AB200B219A8000A19A00001
:101290006A189900D117910040178B00B516840089
:1012A00031167E00B31579003A157300C7146F002C
:1012B00058146A00EE1366008813630025135E005D
:1012C000C7125B006C12570015125400C111510077
:1012D00070114F0021114B00D61049008D104700AE
:1012E0004610440002104200C00F4000800F3E0034
:1012F000420F3C00060F3B00CB0E3800930E370028
:101300005C0E3500270E3400F30D3200C10D3100A4
:10131000900D3000600D2E00320D2D00050D2C00BB
:10132000D90C2B00AE0C2900850C29005C0C270081
:10133000350C27000E0C2600E80B2400C40B2400FB
:10134000A00B23007D0B23005A0B2100390B210039
:10135000180B2000F80A1F00D90A1E00BB0A1E0045
:101360009D0A1D00800A1D00630A1C00470A1B001D
:101370002C0A1B00110A1A00F7091A00DD091900CE
:10138000C4091900AB091900920917007B0918005C
:10139000630917004C0916003609160020091600CB
:1013A0000A091500F5081500E0081400CC0814001F
:1013B000B8081400A4081400900813007D08120057
:1013C0006B08130058081200460812003408110078
:1013D000230811001208110001081100F007100085
:1013E000E0071000D0071000C0071000B0070F0082
:1013F000A107100091070E0083070F0074070F006C
:1014000065070E0057070E0049070E003B070D0049
:101410002E070E0020070D0013070D0006070D0014
:10142000F9060C00ED060D00E0060C00D4060C00D9
:10143000C8060C00BC060C00B0060C00A4060B008D
:1014400099060C008D060B0082060B0077060B0038
:101450006C060B0061060A0057060B004C060A00DA
:1014600042060A0038060A002E060A0024060A0070
:101470001A060A001006090007060A00FD05090001
:10148000F4050900EB050900E2050900D90509008A
:10149000D0050900C7050900BE050900B50508000B
:1014A000AD050800A50509009C0508009405080085
:1014B0008C050800840508007C05080074050800F8
:1014C0006C050700650508005D0507005605080066
:1014D0004E050700470507004005080038050700CE
:1014E000310507002A050700230507001C05060033
:1014F000160507000F05070008050600020507008E
:10150000FB040600F5040700EE040600E8040600EC
:10151000E2040700DB040600D5040600CF04060041
:10152000C9040600C3040600BD040600B704060093
:10153000B1040500AC040600A6040600A0040500E2
:101540009B04060095040500900406008A0405002B
:1015500085040500800406007A0405007504050072
:10156000700405006B0405006604050061040500B5
:101570005C04050057040500520405004D040500F5
:1015800048040500430405003E0404003A04050035
:1015900035040500300404002C0405002704040071
:1015A000230405001E0404001A04040016040500A8
:1015B000110404000D0404000904050004040400DF
:1015C00000040400FC030400F8030400F403040016
:1015D000F0030400EC030400E8030400E403040047
:1015E000E0030400DC030400D8030400D403040077
:1015F000D0030400CC030400C8030300C5030300A8
:1016000024F404D9201BC40C5C0E9804C4095F02A6
:1016100065077101F405F900FB04B3004804870075
:10162000C10369005803550003034500BE023A0098
:101630008402310053022A002902250004022000FE
:10164000E4011C00C8011900AF0117009801140043
:1016500084011300710110006101100051010E009E
:1016600043010D0036010B002B010B0020010B0084
:10167000150109000C01090003010800FB00080026
:10168000F3000800EB000700E4000600DE0006009F
:10169000D8000600D2000600CC000500C7000500F7
:1016A000C2000500BD000400B9000400B50004003C
:1016B000B1000400AD000400A9000400A50003006F
:1016C000A20003009F0004009B0003009800030099
:1016D0009500020093000300900003008D000200BB
:1016E0008B000300880002008600020084000300D3
:1016F000810002007F0002007D0002007B000200EA
:1017000079000200770001007600020074000200F8
:1017100072000100710002006F0002006D00010004
:101720006C0002006A00010069000200670001000D
:101730006600010065000100640002006200010013
:1017400061000100600001005F0002005D00010017
:101750005C0001005B0001005A000100590001001B
:10176000580001005700010056000100550001001B
:10177000540001005300000053000100520001001A
:1017800051000100500001004F0001004E00000018
:101790004E0001004D0001004C0001004B00000014
:1017A0004B0001004A000100490001004800000010
:1017B000480001004700010046000000460001000B
:1017C0004500000045000100440001004300000006
:1017D00043000100420000004200010041000000FF
:1017E00041000100400001003F0000003F000100F7
:1017F0003E0000003E0001003D0000003D000100F1
:101800003C0000003C0000003C0001003B000000E8
:101810003B0001003A0000003A00010039000000DE
:1018200039000100380000003800000038000100D5
:1018300037000000370001003600000036000000CD
:1018400036000100350000003500000035000100C1
:1018500034000000340000003400010033000000B8
:1018600033000000330001003200000032000000AD
:1018700032000100310000003100000031000100A1
:101880003000000030000000300001002F00000098
:101890002F0000002F0000002F0001002E0000008C
:1018A0002E0000002E0001002D0000002D00000081
:1018B0002D0000002D0001002C0000002C00000075
:1018C0002C0000002C0001002B0000002B00000069
:1018D0002B0000002B0001002A0000002A0000005D
:1018E0002A0000002A000100290000002900000051
:1018F0002900000029000000290001002800000044
:101900002800000028000000280000002800010036
:10191000270000002700000027000000270000002B
:10192000270001002600000026000000260000001D
:101930002600000026000100250000002500000010
:101940002500000025000000250000002500010002
:1019500024000000240000002400000024000000F7
:1019600024000100230000002300000023000000E9
:1019700023000000230000002300000023000100DA
:1019800022000000220000002200000022000000CF
:1019900022000000220001002100000021000000C0
:1019A00021000000210000002100000021000000B3
:1019B00021000100200000002000000020000000A5
:1019C0002000000020000000200000002000000097
:1019D000200001001F0000001F0000001F00000089
:1019E0001F0000001F0000001F0000001F0001007A
:1019F0001E0000001E0000001E0000001E0000006F
:101A0000043700001E290000511B00005810000080
:101A100010090000CC040000780200004101000021
:101A2000000096430000964300001B4300000000A6
:101A30000000000000000000000048420000484292
:101A4000000080400202040000A0400000A040000E
:101A5000000040FFFFFF5761726E696E673A2048D1
:101A60006F6D696E672042756D7020446976697389
:101A70006F72203C20310A00486F74656E64206FDD
:101A80006666736574733A0020520048617264633D
:101A90006F6465642044656661756C742053657479
:101AA00074696E6773204C6F616465640A003B2043
:101AB00000546F6F6C2D6368616E67696E673A00E2
:101AC00020204D3835312058005A2D50726F6265F4
:101AD000204F66667365740020204D3230392053E4
:101AE000004175746F2D526574726163743A2053AE
:101AF0003D3020746F2064697361626C652C203105
:101B000020746F20696E7465727072657420452D43
:101B10006F6E6C79206D6F766573206173207265CE
:101B200074726163742F7265636F76657200202032
:101B30004D3230382053005265636F7665723A201B
:101B4000533C6C656E6774683E20463C756E6974E4
:101B5000732F6D3E0020460020570020204D32306C
:101B600037205300526574726163743A20533C6CA1
:101B7000656E6774683E20463C756E6974732F6DA0
:101B80003E205A3C6C6966743E0020204D33303153
:101B90002050005049442073657474696E67733A2D
:101BA00000204A00202047323920572049002020B9
:101BB0004D3432302053004175746F2042656420EB
:101BC0004C6576656C696E673A0020204D3231387D
:101BD00020540020204D323036205800486F6D656B
:101BE000206F66667365743A0020204D32303520D0
:101BF0004200416476616E6365643A20423C6D69DF
:101C00006E5F7365676D656E745F74696D655F7532
:101C1000733E20533C6D696E5F66656564726174E6
:101C2000653E20543C6D696E5F74726176656C5FD1
:101C300066656564726174653E20583C6D61785FCD
:101C4000785F6A65726B3E20593C6D61785F795FA1
:101C50006A65726B3E205A3C6D61785F7A5F6A6597
:101C6000726B3E20453C6D61785F655F6A65726BA3
:101C70003E0020204D323034205000416363656CBB
:101C800065726174696F6E2028756E6974732F7345
:101C900032293A20503C7072696E745F61636365EB
:101CA0006C3E20523C726574726163745F61636361
:101CB000656C3E20543C74726176656C5F61636351
:101CC000656C3E0020204D3230312058004D617847
:101CD000696D756D20416363656C65726174696FD0
:101CE0006E2028756E6974732F7332293A0020456F
:101CF00000205A0020590020204D32303320580057
:101D00004D6178696D756D20666565647261746595
:101D1000732028756E6974732F73293A00537465A4
:101D200070732070657220756E69743A0020204DC2
:101D300032303020530020440020204D32303020FB
:101D400054002044697361626C65640A0046696CE2
:101D5000616D656E742073657474696E67733A00A3
:101D600020286D6D29002020473231202020203B83
:101D700020556E69747320696E206D6D000000A09F
:101D8000420000A0420000A040000048420000A025
:101D9000420000A0420000C8430000CE424C0400B4
:101DA000004C040000640000001027000065636818
:101DB0006F3A004572726F723A0042696C696E65E3
:101DC0006172204C6576656C696E67204772696444
:101DD0003A0A004361703A0047322F47332062616C
:101DE0006420706172616D65746572730A0073A41A
:101DF0004DA511241FBECFEFD1E2DEBFCDBF00E065
:101E00000CBF12E0A0E0B2E0EAE8F7E601E00BBFA9
:101E100002C007900D92A03AB107D9F721E1A0EADC
:101E2000B2E001C01D92AD3EB207E1F71EE0C8EF7F
:101E3000DEE000E006C021970109802FFE010E942C
:101E400022B0C73FD10780E00807A9F70E941F9D75
:101E50000C94B3B30C9400002F923F924F925F9278
:101E60006F927F928F929F92AF92BF92CF92DF92AA
:101E7000EF92FF920F931F93CF93DF93CDB7DEB70F
:101E8000AD970FB6F894DEBF0FBECDBF8DA72091E2
:101E9000B4022CA381E08093B4028091A30F8D340F
:101EA00009F4E1C2843511F40C94701F873411F0E9
:101EB0000C94911F2091A10F3091A20F2531310573
:101EC00011F40C94931FBCF4243031053CF42230FF
:101ED00031050CF05BC037FF30C0C1C22A3031057C
:101EE00009F4A1C02B30310509F4A7C02430310515
:101EF00009F0B5C259C02A32310509F4D0C16CF4D9
:101F00002D31310509F4AFC02E31310509F4CAC0B5
:101F10002C31310509F0A3C296C02B35310509F4E7
:101F20003BC12C35310509F43CC12A35310509F096
:101F300096C21092B3020C94931F8091C00481301A
:101F400011F00C94931F0E94D76980914E11882341
:101F500011F40C94CE1F85E40E944E8F882311F457
:101F60000C94CE1F88E50E944E8F81110C94CE1FD9
:101F700089E50E944E8F81110C94CE1F8AE50E9444
:101F80004E8F81110C94CE1F0C949C1F8091C00425
:101F9000813011F00C94931F2230310509F080E05C
:101FA0000E94D5960C94931F80E50E949C8F8823F5
:101FB00079F08091B1029091B202009749F04AE025
:101FC00050E060E070E00E940AAA6B017C0103C04F
:101FD000C12CD12C760183E50E949C8F882361F06F
:101FE0000E94178F20E030E04AE754E40E941CACC6
:101FF0000E949EB16B017C010E945C830E94C99C7F
:10200000C60ED71EE81EF91E0E94C99CDC01CB013A
:102010008C199D09AE09BF09B7FD02C00C94931F2E
:102020000E94BB27F1CF60E083E50E94C06E682F5D
:1020300081E00E94A98F0C94931F60E080E00E94D1
:10204000A98F0C94931F809176058770873011F0CB
:102050000C94002060E08FE40E94C06E81110C940B
:10206000931F0C9400200E94C99C60932C107093C5
:102070002D1080932E1090932F1087E00E94DE7316
:1020800081110C94931F8091E00A882311F40C9421
:10209000302160E08FE40E94C06E81110C94931F88
:1020A0000C9430212091C90A3091CA0A4091CB0A80
:1020B0005091CC0A6091FE0A7091FF0A8091000B4A
:1020C0009091010B0E942BB0AB01BC0188E50E94EE
:1020D0003F5769837A838B839C832091CD0A30910B
:1020E000CE0A4091CF0A5091D00A6091020B7091B4
:1020F000030B8091040B9091050B0E942BB0AB0158
:10210000BC0189E50E943F576D837E838F8398874A
:10211000BE016B5F7F4FCE0101960E94DB6A882370
:1021200011F40C94931F80E00E947C930E945278DB
:1021300061E085E40E94C06E21E0482FBE016B5F24
:102140007F4FCE0101960E9451546B017C019B018F
:10215000AC010E941DB3811119C049815A816B8164
:102160007C8189ED9CE00E949C964D815E816F810F
:10217000788584ED9CE00E949C96B701A6018FECC7
:102180009CE00E949C968AE00E948F260E943978EB
:102190000E94917A0C94931F8FE08093B3020C9469
:1021A000931F1DE6212E12E0312E00E3E02E01E107
:1021B000F02EAEEFBAE0B9A3A8A385EEC82E8AE050
:1021C000D82E00E010E0F10181911F010E949C8F48
:1021D000882309F44AC00E94178F2B013C01133059
:1021E00049F0D6012D913D914D915C910E942AB00C
:1021F0002B013C01E8A1F9A1208131814281538169
:10220000C301B2010E942AB04B015C012DEB37E300
:1022100046E855EB0E948BB287FD0AC02DEB37E3F1
:1022200046E855E3C501B4010E94B6AB1816ECF4BC
:10223000133051F440920A0B50920B0B60920C0B2E
:1022400070920D0B01E011C0A5019401D7016D91B1
:102250007D918D919C910E942BB0F70160837183D9
:1022600082839383812F0E94BE881F5FF4E0EF0E6C
:10227000F11C28A139A12C5F3F4F39A328A334E0DA
:10228000C30ED11C143009F09ECF002321F08AE048
:102290009BE00E94EB4E0E94917A0C94931F8091D8
:1022A000C004813011F00C94931F89E40E949C8F2C
:1022B000E82E882321F00E94D56E082F01C000E08F
:1022C0008AE40E949C8FF82E882321F00E94D56E0C
:1022D000182F01C010E0EE2011F0033020F4FF2091
:1022E00041F0133030F08BEA92E00E9402960C9499
:1022F000931F80E1EEEFFAE0A6E6B5E001900D92C3
:102300008A95E1F7EE2019F1602F000F770B880B0B
:10231000990B0E94BDAB209146113091471140911D
:102320004811509149110E941CAC2091A00230919B
:10233000A1024091A2025091A3020E942BB060938F
:102340006605709367058093680590936905FF2083
:1023500019F1612F110F770B880B990B0E94BDAB00
:1023600020914A1130914B1140914C1150914D11D7
:102370000E941CAC2091A4023091A5024091A602BB
:102380005091A7020E942BB060936A0570936B0571
:1023900080936C0590936D0560E080E50E94C06EAF
:1023A0008823C1F1EE20D1F02091C90A3091CA0AE8
:1023B0004091CB0A5091CC0A6091660570916705F7
:1023C00080916805909169050E942AB06093660526
:1023D000709367058093680590936905FF20D1F09D
:1023E0002091CD0A3091CE0A4091CF0A5091D00A67
:1023F00060916A0570916B0580916C0590916D05F7
:102400000E942AB060936A0570936B0580936C05F7
:1024100090936D0540E050E0BA0186E40E943F577A
:102420006B017C0120E030E0A9010E948BB21816FC
:102430004CF420E030E040E752E4C701B6010E94CE
:1024400025B103C060E070E0CB0169837A838B83A0
:102450009C83CE0101960E9471780C94931F0E9478
:10246000E1530C94931F0091A10F1091A20F073715
:10247000110509F439C70CF0BDC00135110509F487
:1024800062C50CF055C00A31110509F443C21CF5B0
:102490000531110509F4EDC174F40231110509F497
:1024A0006FC50431110509F4B3C10131110511F0F3
:1024B0000C946D1F99C10731110509F4EEC10CF49C
:1024C000DCC10831110509F4FDC10931110509F418
:1024D00005C20C946D1F0F31110509F42FC384F44C
:1024E0000C31110509F477C20CF422C20D3111052B
:1024F00009F479C20E31110509F47CC20C946D1FE8
:102500000B34110509F4C1C334F40032110509F488
:10251000D2C20C946D1F0C34110509F4BAC30D34EA
:10252000110511F00C946D1F0E94CE7B0C94931F2B
:102530000C36110509F488C454F50C35110509F45D
:1025400078C584F40335110509F413C50CF40AC5E4
:102550000435110509F414C50535110509F446C5FE
:102560000C946D1F0936110509F4CFC334F40836F5
:10257000110509F4A3C30C946D1F0A36110509F463
:10258000D8C30B36110509F4FCC30C946D1F013739
:10259000110509F461C4B4F40E36110509F4FCC345
:1025A0000CF4AFC30F36110509F409C40037110547
:1025B00011F00C946D1F41E060E070E08CE793E057
:1025C0000E94BA240337110509F4D8C50CF4CFC50D
:1025D0000537110511F40C94931F0637110511F0FE
:1025E0000C946D1F00919F0F1091A00F94E0F12C9F
:1025F00040E05DC6083181E0180711F40C94C01C5E
:102600000CF05EC00D3C110509F458C754F50E3BA3
:10261000110509F46CC484F40937110509F46FC677
:102620000CF465C60C38110509F440C40B391105CA
:1026300009F461C40C946D1F093C110509F4C8C666
:1026400034F4083C110509F461C60C946D1F0B3C71
:10265000110509F4E1C60C3C110509F4FEC60C9401
:102660006D1F033D110511F40C94281B84F40F3CDD
:10267000110509F450C70CF431C7003D110509F4E8
:102680008EC7013D110509F4D4C70C946D1F0A3D96
:10269000110511F40C94011C3CF4093D110511F4D1
:1026A0000C94EE1B0C946D1F0C3D110511F40C9451
:1026B000431C0D3D110511F40C946A1C0C946D1F04
:1026C0000C3AA1E01A0711F40C94A21E0CF042C0BF
:1026D0000139E1E01E0711F40C941F1EECF40E32D8
:1026E00021E0120711F40C94D81D3CF40D32114076
:1026F00011F40C94571D0C946D1F0F3291E01907C3
:1027000011F40C941C1E0039114011F00C946D1F33
:102710000E945C830C94931F0A39B1E01B0709F4F3
:1027200097C35CF40239114011F00C946D1F0E94A4
:10273000D26A0E94917A0C94931F043A21E0120706
:1027400011F40C94291E053A114011F40C942C1E1E
:102750000C946D1F0C3082E0180711F40C94091FC3
:102760004CF5053FA1E01A0711F40C94001F6CF41E
:10277000043F114011F00C946D1F0E94CD9689EA20
:1027800096E00E9402960C94931F063FF1E01F070B
:1027900011F40C94061F073F114011F00C946D1FAB
:1027A00061E083E50E94C06E91E089270E94838BDF
:1027B0000C94931F003A33E0130709F4B1C13CF4C1
:1027C0000335134011F40C94161F0C946D1F073E33
:1027D000A3E01A0711F40C94471F093E134011F4AB
:1027E0000C94531F0C946D1F80919B0F84FF02C0AB
:1027F0000C94332180919D0F87FF02C00C943321EC
:1028000080919E0F837011F00C9433210C94502111
:1028100080913A0F83FF25C083ED92E00E940296DB
:1028200080913A0F83FF17C082E79DE00E94F92E46
:102830008BE1E2E7FDE0DE01119601900D928A95B1
:10284000E1F760E070E0CE0101960E94CA68CE0117
:1028500001960E94FE2E84EC92E00E9402960C9457
:10286000931F0E94D19684EE92E00E9402960C94EF
:10287000931F0E94CA620C94931F80913A0F82FFAB
:1028800002C00C94931F0E94B36280913A0F877F1D
:10289000806280933A0F0C94931FE0919F0FF09108
:1028A000A00F8081882329F0803209F410823196AC
:1028B000F8CF60E080919F0F9091A00F0E94B067C9
:1028C0000C94931F0E940625882311F40C94931FE7
:1028D0000E94C2620E94AA7B0C94931F80913A0FBF
:1028E00082FF03C08B7F80933A0F8091C9108130A3
:1028F00011F00C94931F82E08093C9100E94C99C30
:102900006093C5107093C6108093C7109093C81041
:102910000C94931F80913A0F83FD02C00C94931F77
:1029200083E50E949C8F81110C945A210C94931F73
:1029300083E40E944E8F882319F188EF92E00E9471
:10294000029680911C0D882391F0BE016F5F7F4F2E
:1029500089E19DE00E94C02D8E010F5F1F4FF8019D
:1029600081918F01882339F00E948F26F8CF8EEE57
:1029700092E00E9402968AE00E948F260C94931F98
:1029800080913A0F82FF21C087E093E00E94029677
:102990006091360F7091370F8091380F9091390FF9
:1029A0004AE00E9496268FE20E948F266091320FA5
:1029B0007091330F8091340F9091350F4AE00E944F
:1029C00096260E9494270C94931F89E193E00E941D
:1029D00002960C94931F80919F0F9091A00F0E94DC
:1029E0006C670C94931F80913A0F8E7F80933A0FFF
:1029F0000C94931F80913A0F83FD02C00C94931F97
:102A00000E94CA5380913A0F83FD02C00C94931F19
:102A100040919F0F5091A00FBE01645E7F4F80E0F8
:102A20000E9472518C01009711F40C94931F6C8DCD
:102A30007D8D19821C8222E0AC01CE0101960E949C
:102A40002E33811102C0F12C14C0CE0101960E94D8
:102A5000E0508823C1F361E0CE0101960E94A42DCD
:102A6000009789F325EEDC012C931C820E94E86319
:102A7000F82ECE0101960E94FE2EB801FF2089F0AB
:102A800082E493E00E94BA968AE00E948F26109218
:102A9000360F1092370F1092380F1092390F0C9496
:102AA000931F8AE293E00E94BA9689E691E10E9420
:102AB00002960C94931F80913A0F82FD0E945C83D2
:102AC00080913A0F83FD02C00C94931F60E080E573
:102AD0000E94C06E182F682F80919F0F9091A00FB9
:102AE0000E94B06783E50E949C8F882381F00E943A
:102AF000078FAB01BC014093360F5093370F6093A3
:102B0000380F7093390F89E19DE00E940E660E9494
:102B1000C26211110C94931F0E94AA7B0C94931F04
:102B200020919F0F3091A00F90913A0F9260909357
:102B30003A0FC9010E946C670C94931F0E945B7B43
:102B40007B018C0120E831E541E050E00E94A7AF15
:102B5000C9016DE671E00E940EB04B015C01C80135
:102B6000B70120E13EE040E050E00E94A7AFCA017B
:102B7000B90128E130E040E050E00E94A7AF762E96
:102B8000672EC62ED72EBCE32B2E312C412C512C78
:102B9000C801B701A20191010E94A7AFF62EE72E4E
:102BA000CA01B901A20191010E94A7AFCB018E0118
:102BB0000F5F1F4F8114910499F0EF92FF927F9362
:102BC0006F936F927F92BF92AF929F928F9280E5A8
:102BD00093E09F938F931F930F930E9487AB13C033
:102BE000A114B104B1F0EF92FF927F936F936F92B3
:102BF0007F92BF92AF9284E593E09F938F931F9350
:102C00000F930E9487AB0FB6F894DEBF0FBECDBF07
:102C100030C0CD2879F0EF92FF927F936F936F923F
:102C20007F9288E593E09F938F931F930F930E9469
:102C300087ABE9CF892B69F0EF92FF927F936F9377
:102C40008CE593E09F938F931F930F930E9487AB24
:102C5000DACFEF92FF9280E693E09F938F931F93DA
:102C60000F930E9487AB0F900F900F900F900F90D3
:102C70000F900E94D196B80184E693E00E94BA9624
:102C80008AE00E948F260C94931F0E94AA7B0C94CA
:102C9000931F8091C910813011F00C94931F82E032
:102CA0008093C9100E94C99C6093C5107093C61090
:102CB0008093C7109093C8100C94931F8091BB0A07
:102CC00083FF02C00C94931F0E949E6C182F87FFF5
:102CD00002C00C94931F83E50E949C8F882369F0A7
:102CE0000E94178F0E9497B1DC01CB01612F0E94D7
:102CF000995D61E080E00E94A2370E94414E0C94F1
:102D0000931F0E94EE5D0C94931F0E949E6C182FDF
:102D100087FD0AC086E29EE00E940296812F0E94F3
:102D2000A6368AE00E948F26BCA1B093B4020C9410
:102D3000BE2360E080E50E94C86C81110C94931F53
:102D400081E40E944E8F882341F0E091F90AF0E07F
:102D5000E75DF94F6081062F02C00FEF10E083E5B9
:102D60000E949C8F882349F00E94078F8B016F3F40
:102D7000710519F010F00FEF10E0009329060C9484
:102D8000931F60E080E50E94C86C81110C94931F32
:102D9000109229060C94931F8EE40E949C8F882326
:102DA00011F40C94931F0E94078F60932810709366
:102DB000291080932A1090932B100C94931F83E575
:102DC0000E944E8F882331F060E083E50E94C86C3A
:102DD0008093BB0A0E94D19685E793E00E940296F9
:102DE0008091BB0A882369F1A6E2EA2EA7E0FA2EB9
:102DF00000E010E020E08091BB0A90E0A0E0B0E0AD
:102E0000002E04C0B695A795979587950A94D2F79A
:102E100080FF0EC0DD24D394D20E222319F08CE261
:102E20000E948F26F701859194910E9402962D2D84
:102E30000F5F1F4FE2E0EE0EF11C05301105D9F6D1
:102E40009ACD81E793E095CD109218020C94931FD0
:102E50000E94E6240C94931F83E50E949C8F882394
:102E600081F00E948A6C282F30E02D33310524F444
:102E7000809300020C94931F8CE3809300020C94C7
:102E8000931F0E94D196C0900002D12CE12CF12C0E
:102E90008AE893E00E9402964AE0C701B6010E94C8
:102EA00096268AE00E948F260C94931F8091BB0A7D
:102EB00083FF02C00C94931F83E50E949C8F88239C
:102EC00011F40C94931F0E94178F0E9497B16C38D5
:102ED00071050CF48B011093AF050093AE050E94B1
:102EE000BF3761E080E00E94A2370C94931F0E94DC
:102EF000F35B0C94931F83E50E949C8F882311F44D
:102F00000C94931F0E948A6C182F90E0CD970CF0C0
:102F10001CE31093AC020E94C99C6B017C01212F21
:102F200030E0A8EEB3E00E94F3AFC60ED71EE81E55
:102F3000F91EC092A802D092A902E092AA02F092D1
:102F4000AB020C94931F0E94F7370E94CE7B0E9425
:102F50006C830E94142568EE73E080E090E00E948C
:102F6000DE95E1C78091B3028F7D80618093B302CB
:102F7000DAC78091B3028F7E80628093B302D3C799
:102F800083E50E949C8F8823E9F00E94C99C60938E
:102F90002C1070932D1080932E1090932F100E9460
:102FA000178F20E030E04AE754E40E941CAC0E94F6
:102FB0009EB160930102709302028093030290938A
:102FC0000402B1C780919B0F84FF02C00C946B2157
:102FD00080919D0F87FF02C00C946B2180919E0F02
:102FE000837011F00C946B210C949C2183E50E945A
:102FF0004E8F882309F497C70E94C99C60932C10B8
:1030000070932D1080932E1090932F100E94178F85
:1030100020E030E04AE754E40E941CAC0E949EB1DC
:103020006093AD027093AE028093AF029093B002B2
:103030007AC70E949E6C87FD76C790919B0F94FD86
:1030400004C090919D0F97FF0AC0EDE6CE2EE2E0FE
:10305000DE2EF2E0EF2EF5E0FF2E10E009C0909199
:103060009E0F937091F7682F81E00E94886A5BC77A
:10307000D6018D916D010E949C8F882309F46DC04B
:10308000133009F063C00E94178F4B015C0120E0F0
:1030900030E040EA51E40E94B6AB87FF4EC0A50184
:1030A00094016091220570912305809124059091EF
:1030B00025050E9425B12B013C019B01AC016091CB
:1030C0009F117091A0118091A1119091A2110E9465
:1030D0001CAC60939F117093A0118093A1119093E9
:1030E000A211A30192016091320570913305809184
:1030F0003405909135050E941CAC609332057093A5
:1031000033058093340590933505609125067091C1
:10311000260680912706909128060E94BBABA3014A
:1031200092010E941CAC0E949EB160932506709390
:103130002606809327069093280680922205909277
:103140002305A0922405B092250507C00E94178F81
:10315000F701648B758B868B978B1F5FF4E0EF0E06
:10316000F11C143009F084CF0E94C74EDCC60E94C7
:10317000E8528DE09EE00E94EF3ED5C683EE94E0DB
:103180000E94029660E083ED94E00E94FC9B60E068
:103190008EEB94E00E94FC9B60E087EB94E00E9441
:1031A000FC9B61E08CEA94E00E94FC9B61E08CE96E
:1031B00094E00E94FC9B60E083E994E00E94FC9B09
:1031C00061E089E894E00E94FC9B61E08FE794E075
:1031D0000E94FC9B60E088E794E00E94FC9B61E019
:1031E00080E794E00E94FC9B61E082E694E00E940C
:1031F000FC9B60E084E594E00E94FC9B60E085E439
:1032000094E00E94FC9B60E087E394E00E94FC9BBA
:1032100060E081E294E00E94FC9B60E080E194E049
:103220000E94FC9B60E081E094E00E94FC9B61E0D6
:103230008AEF93E00E94FC9B60E085EE93E00E94A1
:10324000FC9B60E087ED93E00E94FC9B61E084ECD6
:1032500093E00E94FC9B60E087EB93E00E94FC9B64
:1032600061E082EB93E00E94FC9B60E085EA93E0E2
:103270000E94FC9B60E081E993E00E94FC9B53C6A6
:10328000D8018C91282F2B7F2134A1F08035F9F4BF
:10329000F801818180538A30D0F498012E5F3F4F2E
:1032A00089012F5F3F4FD8018C918032C9F3915033
:1032B00039F70DC011962C91213349F4813421F056
:1032C000853459F741E0E9CFFF24F394E6CF41116B
:1032D0000E94D196FF2021F089EB95E00E94029692
:1032E000C8010E949A271FC60E942A7B1CC681E043
:1032F00080932D0380932C030E944C7B14C6109264
:103300002D0310922C030E944C7B0DC60E949E6CD4
:10331000182F87FD08C60091AB1184E40E949C8F92
:10332000882311F40C949F210E94178F6B017C015C
:1033300020E030E0A9010E94B6AB882309F442C026
:10334000B4E01B02F0011124ED55FE4EC082D18283
:10335000E282F38220E030E0A9016091A311709134
:10336000A4118091A5119091A6110E94B6AB811174
:103370000CC080E090E0A0EEBFE38093A311909397
:10338000A411A093A511B093A61120E030E0A901EB
:103390006091A7117091A8118091A9119091AA1123
:1033A0000E94B6AB81110CC080E090E0A0EEBFE3BC
:1033B0008093A7119093A811A093A911B093AA117B
:1033C00001E0BDC780E08093AB110E944184ABC592
:1033D0000E949E6C87FDA7C57DE6E72E72E0F72E62
:1033E00002E015E0F70181917F010E944E8F882352
:1033F00061F00E94178F0E949EB1D8016D937D935A
:103400008D939C9313970E94804E0C5F1F4FB5E0E5
:1034100002311B0739F787C50E949E6C87FD83C563
:103420006DE6E62E62E0F62E02E015E0F7018191EE
:103430007F010E944E8F882349F00E94178FD80188
:1034400094966D937D938D939C9397970C5F1F4FEC
:10345000B5E002311B0751F766C580919C0F87FDCF
:1034600073C780919D0F8E7009F06EC7409136052D
:103470005091370560913805709139058DEB95E0D5
:103480000E949C9640913A0550913B0560913C0505
:1034900070913D0588E89AE10E949C9640913E0516
:1034A00050913F0560914005709141058FE39DE18A
:1034B0000E949C968AE00E948F2635C580919B0FC2
:1034C000827109F087C780919D0F8C7809F082C7BF
:1034D00080919E0F837009F07DC725C55FE2E52EC0
:1034E00053E0F52E10E088E5810F0E944E8F88236F
:1034F00051F00E94178FF701608371838283938359
:10350000812F0E94BE881F5FF4E0EF0EF11C133084
:1035100051F70C944B1183E50E944E8F882351F094
:103520000E94178F60934F11709350118093511127
:103530009093521186E40E944E8F882381F00E945E
:10354000178F20E030E040E752E40E9425B16093FD
:1035500053117093541180935511909356118AE52D
:103560000E944E8F882351F00E94178F609357114D
:10357000709358118093591190935A1187E50E94C6
:103580004E8F882309F4CFC40E94178F6093631174
:10359000709364118093651190936611C4C483E5A0
:1035A0000E944E8F882351F00E94178F60935B1109
:1035B00070935C1180935D1190935E1186E40E947C
:1035C0004E8F882381F00E94178F20E030E040E783
:1035D00052E40E9425B160935F1170936011809353
:1035E00061119093621182E50E944E8F882381F0D1
:1035F0000E94178F20E030E040E752E40E9425B19E
:1036000060936B1170936C1180936D1190936E1198
:1036100087E50E944E8F882309F485C40E94178F86
:1036200060936711709368118093691190936A1188
:103630007AC483E50E944E8F882309F474C40E94E3
:10364000D46C80934E1110924411109245116BC4AA
:103650004090E50A5090E60A6090E70A7090E80A08
:1036600020911B0230911C0240911D0250911E02BC
:10367000C301B2010E942BB068A379A38AA39BA3C4
:103680008090E90A9090EA0AA090EB0AB090EC0AC8
:1036900020911F023091200240912102509122027C
:1036A000C501B4010E942BB06DA37EA38FA398A780
:1036B000C090ED0AD090EE0AE090EF0AF090F00A88
:1036C000209123023091240240912502509126023C
:1036D000C701B6010E942BB069A77AA78BA79CA748
:1036E00020912702309128024091290250912A020C
:1036F000C301B2010E942BB02B013C0120912B028F
:1037000030912C0240912D0250912E02C501B4013E
:103710000E942BB04B015C0120912F0230913002AE
:103720004091310250913202C701B6010E942BB084
:103730006B017C010E94D1968FE096E00E94029678
:1037400083E50E944E8F882321F00E94D46C8093E1
:10375000190280911902882319F08EE792E002C0C5
:103760008FED94E00E94029687E096E00E94029618
:1037700048A159A16AA17BA18AEC9CE10E949C9678
:103780004DA15EA16FA178A584EF9CE10E949C965B
:1037900049A55AA56BA57CA581EF9CE10E949C964A
:1037A0008BEB95E00E9402968FEF95E00E940296C7
:1037B000B301A2018AEC9CE10E949C96B501A40190
:1037C00084EF9CE10E949C96B701A60181EF9CE1E9
:1037D0000E949C968AE00E948F26A5C38AE50E94DB
:1037E0009C8F882351F00E94178F6093620570931D
:1037F0006305809364059093650580E00E94C36A29
:1038000092C30E949E6C182F87FD8DC388E50E948D
:103810009C8F882361F00E94178F2CE01202F00128
:103820001124E65BFA4F608371838283938389E579
:103830000E949C8F882361F00E94178F3CE0130246
:10384000F0011124E65BFA4F6483758386839783C6
:103850008AE50E949C8F882361F00E94178FACE05C
:103860001A02F0011124E65BFA4F608771878287A4
:10387000938780919D0F87FD56C380919E0F837023
:1038800009F051C32CC683E50E949C8F882331F038
:103890000E94D56E909359028093580280919B0F9D
:1038A00090919C0FA0919D0FB0919E0F892B8A2B18
:1038B0008B2B09F038C360915802709159028FE147
:1038C00096E00E94AD9685E20E948F268AE00E94D3
:1038D0008F2629C30E949E6CF82E87FD24C383E5A2
:1038E0000E949C8F0F2D0F2C000C110B882369F167
:1038F0000E94D56EF801EE0FFF1FE15AFD4F918334
:103900008083000F111F000F111F98012E5B3D4F88
:103910007901BC01990F880B990B0E94BDAB2AE07D
:1039200037ED43E25CE30E941CACF801E45CFE4E20
:1039300020813181428153810E941CACD7016D935B
:103940007D938D939C931397EEC20E94D19685E44C
:103950000E948F2680E38F0D0E948F26000F111F7B
:10396000F801E15AFD4F6081718183E296E00E9487
:10397000AD9685E20E948F268AE00E948F26D3C2F0
:1039800080E50E944E8F882309F4CDC20E94D56E37
:103990008C01892B09F07FC083E50E944E8F88231C
:1039A00089F00E94D56E8F3FBFEF9B0729F481EF0E
:1039B0009DE00E941725B7C2BC0181EF9DE00E94E7
:1039C0004625B1C20E94D19660E070E08BE296E09D
:1039D0000E94AD968091F30D28E532E06901C81A86
:1039E000D10887FDD394CC0CDD1CCC0CDD1C0D2C38
:1039F000000CEE08FF088091F20D28E830E0490144
:103A0000881A910887FD9394880C991C880C991C3E
:103A1000092C000CAA08BB088091F10D8F3FC1F062
:103A200090E0FC01EE0FFF1F8E0F9F1FFC01E85579
:103A3000F24F2181328113E0220F331F1A95E1F7F3
:103A400004E0369527950A95E1F72E5F3F4F02C0B7
:103A500020E030E02F5F3F4FC901330FAA0BBB0BB3
:103A60009C01AD01281939094A095B09A4EBB0E0B2
:103A70000E94E8AFA7019601281939094A095B0994
:103A80000E94C9AFB90187E09BE00E94AD968AE031
:103A90000E948F2648C20E94CD96B8018CE296E023
:103AA0000E94AD9685EB92E00E9402963CC260E0D7
:103AB00085E40E94C86C823008F073C080E50E94E3
:103AC0004E8F882351F00E94178F6093BC0570932E
:103AD000BD058093BE059093BF0589E40E944E8F7B
:103AE000882381F00E94178F2CEA35EC47E25EE3D1
:103AF0000E941CAC6093C0057093C1058093C20501
:103B00009093C30584E40E944E8F882381F00E9425
:103B1000178F2CEA35EC47E25EE30E9425B16093F3
:103B2000C4057093C5058093C6059093C7050E9490
:103B3000D1964091BC055091BD056091BE05709134
:103B4000BF058BE396E00E949C962CEA35EC47E299
:103B50005EE36091C0057091C1058091C2059091AE
:103B6000C3050E9425B1AB01BC0187E396E00E942A
:103B70009C962CEA35EC47E25EE36091C4057091B7
:103B8000C5058091C6059091C7050E941CACAB018C
:103B9000BC0183E396E00E949C968AE00E948F26F7
:103BA000C2C10E94CD968CE99AE00E940296BBC1E8
:103BB00083E50E944E8F182F882371F00E94178F83
:103BC0000E9497B170934B0260934A0221E0672BE9
:103BD00009F020E020933A0680E50E944E8F88236A
:103BE00059F020914A0230914B02232B11F00E9490
:103BF000D46C80933A0697C1111195C10E94D19659
:103C000088E596E00E94029680913A06882319F092
:103C100087EA91E102C08FE396E00E9402966091EC
:103C20004A0270914B0287E496E00E94AD9683E4CD
:103C300096E00E94029677C10E94565774C1809107
:103C4000C80A81110C944B1181E00E94F88A0C94EF
:103C50004B110E94E46C67C16FEF7FEF89E40E9413
:103C6000D96E082F6FEF7FEF8AE40E94D96E182F6C
:103C70008AE50E949C8F811108C081E50E949C8F7B
:103C8000B82E882309F45FC401C0B12CA02E81E0B6
:103C9000800F843008F04FC0912E81E0810F843076
:103CA00008F049C00E94178F2B013C01F02E07FD40
:103CB000F12C07FF02C0A2E0AA2E812E17FD812C55
:103CC00017FF02C0F2E09F2EAF1408F42CC1E82CBD
:103CD0008F2D90E06C01CC0CDD1CC80ED91E9E14FB
:103CE00040F10E2D10E0BB2071F0F601E00FF11F46
:103CF000EE0FFF1FEE0FFF1FE159FE4E20813181B5
:103D00004281538103C020E030E0A9010C0D1D1D4C
:103D1000000F111F000F111F01591E4EC301B201E8
:103D20000E942BB0F8016083718382839383E394B4
:103D3000D6CFF394C9CF0E94CD968BEA92E00E9431
:103D40000296F1C087E00E94DE738111ECC00CE2A4
:103D50001AE12EEF3AE039A328A3CE0101961C0107
:103D600093E5C92E9AE1D92E7101F80165917591FB
:103D700085919491A8A1B9A18D909D90AD90BD9091
:103D8000B9A3A8A3A50194010E942AB02B013C016C
:103D9000F701608371838283938320E030E040EAFF
:103DA00051EC0E948BB287FD0AC020E030E040EA6F
:103DB00051E4C301B2010E94B6AB18162CF4F6010F
:103DC000849118160CF4C6C3D7018D909D90AD90C8
:103DD000BD907D0120E030E040EA51ECC501B40126
:103DE0000E948BB287FDC1C320E030E040EA51E47D
:103DF000C501B4010E94B6AB18160CF0BDC3B5C323
:103E00000E94FA8880E00E94838B8DC00E94FA880D
:103E10008AC080913A0F82FF04C0806480933A0F79
:103E200082C083FF80C00E94CA537DC080919D0FD5
:103E300087FDC7C380919E0F837009F0C2C3409174
:103E4000C90A5091CA0A6091CB0A7091CC0A87EFD7
:103E500096E00E949C964091CD0A5091CE0A6091C6
:103E6000CF0A7091D00A84EF9CE10E949C96409109
:103E7000D10A5091D20A6091D30A7091D40A81EF8D
:103E80009CE10E949C968AE00E948F264CC081E0B3
:103E90008093C00460E083E50E94C06E811143C03E
:103EA0000E94036040C00E945B7B6D3371058105F9
:103EB000910520F082E297E00E94169C8EE197E047
:103EC0000E94169C8AE097E00E94029686E097E0A6
:103ED00090933D0380933C0326C00E94E15323C08E
:103EE0001091A10F0E94C99C60932C1070932D100B
:103EF00080932E1090932F10212F012E000C330B46
:103F00008091F90A90E02817390729F060E083E5ED
:103F10000E94C06E01C081E0682F812F0E941F3473
:103F200002C00E94E153FDA5F11102C00E94F35F9F
:103F30002CA12093B40222C4809072059090730546
:103F4000A0907405B090750520910A0B30910B0B71
:103F500040910C0B50910D0BC501B4010E942AB089
:103F60006B017C0120E030E0A9010E948BB287FF49
:103F7000F8C32DEC3CEC4CEC5DEBC701B6010E94A4
:103F8000B6AB18165CF0C701B601905820E030E0DF
:103F900040E251E40E94B6AB18161CF40E94D174A2
:103FA000C2CF0091F90A10E00C5B1E4E7724739487
:103FB00020E030E0A901C701B6010E948BB21816BB
:103FC0000CF0712CD8018C918711E8CF80920A0BEC
:103FD00090920B0BA0920C0BB0920D0B8AE09BE021
:103FE0000E94EB4E20E030E0A901C701B6010E941B
:103FF000B6AB60E0881F8827881F0E94A98F93CFE7
:104000000E945C8310921A0280E00E947C930E94BE
:10401000C99C60932C1070932D1080932E10909358
:104020002F103090F90A61E080E00E941F340E9456
:10403000527881E080932D030E944C7B8AE50E9498
:104040004E8F082F8823A1F081E00E94CB73F82EB9
:1040500082E00E94CB7311E0811101C010E0F110E9
:10406000ECC088E50E944E8FE82E8111E6C002C0A8
:1040700010E0F7CF1111EAC089E50E944E8FF82EAB
:104080008113DFC00113DFC0FF24F394EE24E39417
:1040900011E082E50E949C8F882319F00E94178FFF
:1040A00004C060E070E080EA90E46C8F7D8F8E8FBA
:1040B0009F8F20E030E0A9010E94B6AB882359F021
:1040C000E11005C0F11003C0112309F4A7C0CE010F
:1040D0004C960E94EF53EE2019F080E00E9435A626
:1040E000FF2019F081E00E9435A6112309F496C043
:1040F00083E00E94DE73811191C00E948F7A8091CB
:10410000060B9091070BA091080BB091090B88A3A7
:1041100099A3AAA3BBA32091C90A3091CA0A4091CE
:10412000CB0A5091CC0A60E070E086E193E40E94F3
:104130002AB04B015C01609366057093670580931C
:104140006805909369052091CD0A3091CE0A40917F
:10415000CF0A5091D00A60E070E086E193E40E94BB
:104160002AB02B013C0160936A0570936B05809324
:104170006C0590936D052091D10A3091D20A40913F
:10418000D30A5091D40A68A179A18AA19BA10E9467
:104190002AB060936E0570936F05809370059093BD
:1041A000710527E137EB41ED58EBC301B2010E94E5
:1041B0008BB287FD4EC023E030E046E953E4C301F3
:1041C000B2010E94B6AB18160CF443C027E137EBDE
:1041D00041ED58EBC501B4010E948BB287FD39C097
:1041E00023E030E046E953E4C501B4010E94B6ABD8
:1041F00018167CF119821A821B821C82CE0101964C
:104200006C01E8A0F9A00AA11BA1A3019201C501BC
:10421000B4010E94FB7882E00E9435A60E948F7A4A
:1042200080912C0380932D030E94397861E0832DC7
:104230000E941F340E94917A76CE111123CF11E093
:104240001BCFE12E04C0F12EE12E01C0F12E102F64
:1042500020CF0E94D19689E992E00E940296DECF9B
:104260000E94E86E60CE88E50E944E8F81115F98B3
:1042700089E50E944E8F81118A988AE50E944E8FAF
:10428000882329F08091080181708093060185E4DC
:104290000E944E8F882309F446CE0E94E32443CE29
:1042A0005F988A98809108018170809306010E942E
:1042B000E32439CE0E94078FAB01BC014093360F37
:1042C0005093370F6093380F7093390F89E19DE059
:1042D0000E940E6628CE0E945C8388E50E944E8F65
:1042E000882331F05F9A8091C70A8E7F8093C70A36
:1042F00089E50E944E8F882331F08A9A8091C70AFF
:104300008D7F8093C70A8AE50E944E8F882359F0DB
:104310008091080180958170809306018091C70A81
:104320008B7F8093C70A85E40E944E8F882309F40F
:10433000FACD0E949E24F7CD0E946C83F4CD602FAD
:1043400083E50E94C06E3FC883E50E949C8F88234E
:1043500091F00E94178F6093360570933705809314
:1043600038059093390560933E0570933F0580931F
:1043700040059093410580E50E949C8F882351F071
:104380000E94178F60933605709337058093380528
:104390009093390582E50E949C8F882351F00E94FA
:1043A000178F60933A0570933B0580933C0590937B
:1043B0003D0584E50E949C8F882309F4B4CD0E94BA
:1043C000178F60933E0570933F058093400590934F
:1043D0004105A9CD82E40E944E8F8823C1F08091CF
:1043E000B1029091B202009739F04AE050E060E0EB
:1043F00070E00E940AAA03C060E070E0CB01609305
:10440000120570931305809314059093150583E5A9
:104410000E944E8F882351F00E94178F60934205AF
:1044200070934305809344059093450584E50E946D
:104430004E8F882351F00E94178F6093460570932A
:104440004705809348059093490588E50E944E8F63
:10445000882351F00E94178F6093931170939411E9
:10446000809395119093961189E50E944E8F882331
:1044700051F00E94178F6093971170939811809359
:10448000991190939A118AE50E944E8F8823B1F07A
:104490000E94178F60939B1170939C1180939D11C4
:1044A00090939E112DEC3CEC4CEC5DE30E94B6AB7E
:1044B000181624F08DEC95E00E94029685E40E9487
:1044C0004E8F882309F42FCD0E94178F60939F1180
:1044D0007093A0118093A1119093A21124CD0E94FA
:1044E000D19688E79AE10E9402960AE415E080E2FC
:1044F0000E948F26F801608171818281938142E060
:104500000E941F278CE20E948F26D80114966D917D
:104510007D918D919C91179742E00E941F278CE21C
:104520000E948F26F801608571858285938543E01E
:104530000E941F27045F1F4FF5E002361F0711F48A
:104540000C94BB14D4CF0E94CD968BE696E00E94CB
:104550000296E9CCB7FAB094B7F8B094D7018D922F
:104560009D92AD92BC9213972FCC0E94CD968BE872
:1045700096E00E940296D7CC0C5F1F4FBFEFCB1A7C
:10458000DB0AE8E3FAE1E017F10709F0EECB8FE28E
:10459000E82E83E0F82E10E0F10181919191A19134
:1045A000B1911F01F70181939193A193B1937F0181
:1045B000812F0E94BE881F5F133071F70E94917A8D
:1045C000B2CCF091C90AF8A32090CA0A8090CB0A15
:1045D0007090CC0A6090CD0A5090CE0A4090CF0ADD
:1045E0003090D00AC090D10AD090D20AE090D30A7D
:1045F000F090D40A88E50E949C8F882361F10E9484
:10460000178F5B018C0120E030E046E953EC0E94FB
:104610008BB287FD0AC020E030E046E953E4B501E3
:10462000C8010E94B6AB181694F46CE271E084EEF7
:1046300096E00E94AD966CE271E08FED96E00E94EC
:10464000AD9684E496E00E94029610E005C0A8A210
:104650002B2C802E712E11E089E50E949C8F8823DF
:1046600081F10E94178F962EA72EB82E092F20E0D9
:1046700030E046E953EC0E948BB287FD0CC020E08D
:1046800030E046E953E4692D7A2D8B2D902F0E945E
:10469000B6AB181694F46CE271E08CEC96E00E94D4
:1046A000AD966CE271E08FED96E00E94AD9684E4E9
:1046B00096E00E94029610E004C0692C5A2C4B2C04
:1046C000302E8AE50E949C8F882339F10E94178F33
:1046D0006B017C0120E030E040EA51EC0E948BB29B
:1046E00087FD0AC020E030E040EA51E4C701B6018E
:1046F0000E94B6AB18168CF46CEE7FEF8AEB96E056
:104700000E94AD9664E170E08FED96E00E94AD9658
:1047100084E496E00E94029606CC112309F403CCAF
:1047200088A1922DA82DB72D8093C90A9093CA0A0B
:10473000A093CB0AB093CC0A862D952DA42DB32D32
:104740008093CD0A9093CE0AA093CF0AB093D00A5B
:10475000C092D10AD092D20AE092D30AF092D40A3F
:10476000E2CB2DEC3CEC4CEC5DE3C701B6010E94C2
:104770008BB287FD13CCC701B60108CCAD960FB63E
:10478000F894DEBF0FBECDBFDF91CF911F910F9187
:10479000FF90EF90DF90CF90BF90AF909F908F9061
:1047A0007F906F905F904F903F902F900895CF92A1
:1047B000DF92EF92FF920F931F93CF93DF936C01E1
:1047C0008B017A01EC01C854DD4F888187FF04C05A
:1047D000FB011182108224C02CE02C9DC0012D9D74
:1047E000900D11242881AC01420F511D27FD5A95CF
:1047F0002091F00D30E04217530794F42881AC016A
:10480000420F511D27FD5A959A01FA01EE0FFF1F25
:104810002E0F3F1FF901E855F24F208127FD19C0E7
:1048200088818F5F88832CE02C9DC0012D9D900D89
:1048300011242881AC01420F511D27FD5A9520916A
:10484000F00D30E042175307BCF428812C3044F1BE
:1048500013C02881820F911D27FD9A95FC01EE0F50
:10486000FF1F8E0F9F1FFC01E855F24F808160E013
:104870008F770E948756D4CFF8018081918104966A
:1048800080349C4918F480E49CE904C0F8018081DC
:1048900091810496F701918380838FEF888345C0CF
:1048A000F801408151812881BC01620F711D27FDF3
:1048B0007A959B01FB01EE0FFF1F2E0F3F1FF901A1
:1048C000E855F24F21813281240F351FF7013183E2
:1048D00020832881AC01420F511D27FD5A959A0172
:1048E000FA01EE0FFF1F2E0F3F1FF901E855F24F9F
:1048F000208127FF1AC02881820F911D27FD9A95DC
:10490000FC01EE0FFF1F8E0F9F1FFC01E855F24FB9
:10491000808161E08F77DF91CF911F910F91FF90A0
:10492000EF90DF90CF900C948756DF91CF911F913D
:104930000F91FF90EF90DF90CF900895129A479AD1
:1049400008955F9A8091C70A8E7F8093C70A8A9ADA
:104950008091C70A8D7F8093C70A80910801809556
:104960008170809306018091C70A8B7F8093C70A6C
:104970000C949E24C42F0E94F7370E94CD9684EC9D
:1049800098E00E94029689EE93E030E6019729F0C4
:10499000232F2A950000E9F7F9CFF89489EE93E0E8
:1049A00038EE019729F0232F2A950000E9F7F9CF77
:1049B0000E94F737CC2319F00E94A12402C00E9464
:1049C0009E24A895FECF1298479808950E94CC8601
:1049D0009091F80D9093F70D9093F60D9093F50D3F
:1049E00094E69093F40D20ED33E03093A5052093E9
:1049F000A40581110E94D98681E0809379050E94E7
:104A00005C838EEF0E94DB790C948F7A90913A0F41
:104A100093FB882780F993FF06C081E090911C0DDD
:104A2000911101C080E00895109229060895DC01DB
:104A3000EC91F0E0CF01880F991FE80FF91FE855BE
:104A4000F24F80818F7780830895009781F41092D0
:104A5000900082E080939100109295001092940053
:104A6000C19A8091710082608093710008950197CE
:104A700061F41092A00082E08093A1001092A50042
:104A80001092A40089BB8093720008957F928F9248
:104A90009F92AF92BF92CF92DF92EF92FF920F93CD
:104AA0001F93CF93DF93FC019081983108F0CDC024
:104AB0006B017F01892F90E0FC01EE0FFF1F8E0F2D
:104AC0009F1FFC01E855F24F80818F770E94314F84
:104AD000F7011182128280816CE00E9402B0FCE03A
:104AE0008F9FB001112440E050E09B01240F351F3F
:104AF000F901EE0FFF1F2E0F3F1FF901E855F24F8E
:104B0000908197FD08C04F5F5F4F4C30510569F7AA
:104B100090E00E942525F7017080C72DD0E08E011E
:104B2000000F111FF801EC0FFD1FE855F24F8081B7
:104B30008068808377FC89C0F0E2CF16F2E0DF0660
:104B40000CF041C0F701828128E532E0281B3109D1
:104B500087FD3395220F331F220F331F032E000CC6
:104B6000440B550B818168E870E04B01881A91086D
:104B700087FD9394880C991C880C991C092C000CB7
:104B8000AA08BB08D7FC0BC0B601653B710514F041
:104B900064EB70E0072E000C880B990B03C060E0FB
:104BA00070E0CB01281939094A095B090E9497AFC7
:104BB00024EB30E040E050E00E94C9AF820E931E2B
:104BC000A41EB51E01C04601F7E1F71558F1F70123
:104BD000218188E890E0821B910927FD9395880F39
:104BE000991F880F991F8816990684F0F701228172
:104BF00088E592E0821B910927FD9395880F991F04
:104C0000880F991F881699060CF4C40102972FB7D4
:104C1000F894C00FD11FC855D24F880F991F9A839F
:104C200089832FBF6CE271E080E090E0DF91CF914B
:104C30001F910F91FF90EF90DF90CF90BF90AF90BA
:104C40009F908F907F900C94DE95DF91CF911F9174
:104C50000F91FF90EF90DF90CF90BF90AF909F901B
:104C60008F907F9008951F920F920FB60F9211248C
:104C70000BB60F922F933F934F935F936F937F9356
:104C80008F939F93AF93BF93EF93FF9348EA50E0C6
:104C900064EA70E081E090E00E94D723FF91EF91F9
:104CA000BF91AF919F918F917F916F915F914F9144
:104CB0003F912F910F900BBE0F900FBE0F901F9042
:104CC00018951F920F920FB60F9211240BB60F92E8
:104CD0002F933F934F935F936F937F938F939F9304
:104CE000AF93BF93EF93FF9348E950E064E970E01E
:104CF00080E090E00E94D723FF91EF91BF91AF91A8
:104D00009F918F917F916F915F914F913F912F91E3
:104D10000F900BBE0F900FBE0F901F9018959091A3
:104D2000C00095FFFCCF8093C60008958F929F929C
:104D3000AF92BF92EF92FF920F931F93CF93DF93A7
:104D4000CDB7DEB7A0970FB6F894DEBF0FBECDBFCC
:104D5000611571058105910591F100E0842E912C7A
:104D6000A12CB12C102FEE24E394F12CEC0EFD1E9F
:104D7000E00EF11C07FDFA94A50194010E94A7AF73
:104D8000F7016083B901CA010F5F611571058105E3
:104D9000910541F71F3F31F1E1E0F0E0EC0FFD1F1D
:104DA000E10FF11D17FDFA9580818A3010F097E32D
:104DB00001C090E3890F0E948F261150EBCF80E352
:104DC000A0960FB6F894DEBF0FBECDBFDF91CF9196
:104DD0001F910F91FF90EF90BF90AF909F908F9099
:104DE0000C948F26A0960FB6F894DEBF0FBECDBFF1
:104DF000DF91CF911F910F91FF90EF90BF90AF90F7
:104E00009F908F900895CF92DF92EF92FF926B0167
:104E10007C0197FF0BC08DE20E948F26F094E094F6
:104E2000D094C094C11CD11CE11CF11C4AE0C70104
:104E3000B601FF90EF90DF90CF900C9496268F9262
:104E40009F92AF92BF92CF92DF92EF92FF92CF9359
:104E50006B017C01B42E20E030E0A9010E94B6ABCA
:104E600087FF07C08DE20E948F26F7FAF094F7F8CB
:104E7000F094C0E060E070E080E09FE3CB1541F08B
:104E80002DEC3CEC4CEC5DE30E941CACCF5FF6CF0C
:104E90009B01AC01C701B6010E942BB06B017C01E4
:104EA0000E949EB14B015C014AE00E949626CC23F1
:104EB00089F1C501B4010E94BBAB9B01AC01C701E4
:104EC000B6010E942AB06B017C018EE20E948F26FF
:104ED00020E030E040E251E4C701B6010E941CAC82
:104EE0004B015C010E9497B16B01770FEE08FF0840
:104EF000C701B6010E940327C701B6010E94BDABDE
:104F00009B01AC01C501B4010E942AB06B017C0178
:104F1000C150F1F6CF91FF90EF90DF90CF90BF900E
:104F2000AF909F908F9008958DE00E948F268AE029
:104F30000C948F26CF93DF93EC018991882319F08D
:104F40000E948F26FACFDF91CF910C949427809105
:104F5000A40F9091A50F981759F0E92FF0E0EC55A8
:104F6000F04F82819F5F9F779093A50F90E0089507
:104F70008FEF9FEF08952F923F924F925F926F9223
:104F80007F928F929F92AF92BF92CF92DF92EF92D9
:104F9000FF920F931F93CF93DF93CDB7DEB72A977E
:104FA0000FB6F894DEBF0FBECDBF8091BF04843032
:104FB00008F0D2C18091BF04843008F0F9C080911C
:104FC000A40F9091A50F891B8F7709F4F1C00E945F
:104FD000A72797FDEFCF8A3019F08D3009F0DFC099
:104FE0001092BE028091261090912710FC01E1548E
:104FF000FD4F1082892B39F0109227101092261045
:105000000FEB12E003C00E94753BD4CFF8018191F1
:10501000803211F48F01FACF8E3409F06AC0011585
:10502000110509F466C06FE678E0C8010E946DAB17
:105030007C01892B41F06EE470E0C80104960E9467
:1050400079B3009709F4C8014AE050E060E070E0ED
:1050500001960E94DCA84B015C0180912810909180
:105060002910A0912A10B0912B100196A11DB11DFD
:1050700088169906AA06BB0631F0EF2821F460E0F5
:105080008CE398E049C06AE270E0C8010E94A8B3CE
:105090009C01009709F1982F901BF12C992339F06E
:1050A0009150F801E90FF11D8081F826F7CF4AE011
:1050B00050E060E070E0C90101960E94DCA8CF2CAE
:1050C000D12CE12CF12C6C157D058E059F0541F04E
:1050D00060E08DE198E020C060E083EF97E01CC0C5
:1050E0008092281090922910A0922A10B0922B1032
:1050F00016C080913A0F80FF12C065E87AE0C801BF
:105100000E946DAB009729F0FC01838180538A30A7
:1051100030F460E083EF97E00E941F6049C0809107
:10512000C0048130B9F067E470E0C8010E9479B32F
:10513000009781F04AE050E060E070E001960E9444
:10514000DCA8643071058105910520F48CE797E0B7
:105150000E94029667E777E0C8010E9434AB892B72
:1051600011F41092180262E777E0C8010E9434AB94
:10517000892B31F441E060E070E08CE793E031C1CD
:105180006DE677E0C8010E9434AB892B11F40E94D0
:10519000E62461E08FEB92E00E9463600BCF26E291
:1051A00030E14FEB52E06EEB72E00E94B85F02CF4D
:1051B00080913A0F82FFD0C01A82198211E040918B
:1051C000360F5091370F6091380F7091390F8091E1
:1051D000320F9091330FA091340FB091350F4817D3
:1051E00059076A077B0708F410E000E680E1F82E13
:1051F00099E6E92E8091BF04843008F0ADC011110A
:10520000ABC08091210D9091220DA091230DB09102
:10521000240D8093360F9093370FA093380FB093DF
:10522000390F41E050E0BE016D5F7F4F89E19DE0A5
:105230000E942330019719F48B8190E002C08FEF18
:105240009FEF4090360F5090370F6090380F70905E
:10525000390F8090320F9090330FA090340FB090A0
:10526000350F11E0481459046A047B0408F410E077
:105270008F3FFFEF9F0761F4481459046A047B04D1
:1052800038F40E94CD9684E798E00E940296B2CF4F
:1052900040913B038A3079F08D3069F0481459040D
:1052A0006A047B0408F490C089819A81009719F000
:1052B00001969A83898310921F0389819A81FC0148
:1052C000049FE00DF11D1124E25CFC4F1082892B3C
:1052D00031F01A82198280E00E944E6002C00E9462
:1052E000753B481459046A047B0408F483CF0E9478
:1052F0005C8389E19DE00E949B2D8091310F882382
:1053000031F181508093310FE89EC001112462E099
:105310008C5C9F4E0E94B067E091310F24E0E29FC9
:10532000F0011124E05DFF4E408151816281738163
:105330004093360F5093370F6093380F7093390FA7
:1053400089E19DE00E940E660E94C26253CF0E94D6
:10535000B362F092C0044ECF0E94C99C4B015C0125
:105360004091AD025091AE026091AF027091B002D7
:105370004115510561057105B1F180912C10909195
:105380002D10A0912E10B0912F10840F951FA61FE5
:10539000B71F95018401081B190B2A0B3B0B37FD26
:1053A00022C00E94CD966091D60A7091D70A80E300
:1053B00097E00E94BA968AE00E948F2640E060E063
:1053C00070E080E090E00DC0049FA0011124425CD9
:1053D0005C4F9E012F5F3F4F6FE173E00E94B85F0B
:1053E00009CF0E94BA248091010290910202A091FB
:1053F0000302B0910402892B8A2B8B2B09F44DC038
:105400009091F70D8091F80D981749F080922C102B
:1054100090922D10A0922E10B0922F103EC00E949C
:10542000C99CC0902C10D0902D10E0902E10F090C0
:105430002F1000910102109102022091030230917D
:1054400004020C0D1D1D2E1D3F1DDC01CB01801B18
:10545000910BA20BB30BB7FDA9C28091240381115C
:105460001CC081E0809324035F9A8091C70A8E7FDD
:105470008093C70A8A9A8091C70A8D7F8093C70A52
:105480008091080180958170809306018091C70A00
:105490008B7F8093C70A0E949E2480912003909165
:1054A0002103A0912203B0912303A5019401281B9D
:1054B000390B4A0B5B0B57FDDFC19091F70D8091C3
:1054C000F80D981751F0E091F80D38E4E39FF001E2
:1054D0001124EE57F94F008102C0009129060023E4
:1054E00011F010E002C000E010E088E00E94314FAF
:1054F0000115110511F460E004C00F3F110529F4F6
:1055000061E088E00E948756ADC0EBE1FDE0E491E8
:105510008E2F90E0FC013197E231F10508F09DC03B
:105520008827EE58FF4F8F4F0C9422B084B58068C7
:1055300084BD07BD97C084B5806284BD08BD92C09C
:105540008091800080688093800010938900009390
:10555000880088C0809180008062809380001093D2
:105560008B0000938A007EC08091800088608093C9
:10557000800010938D0000938C0074C08091B00067
:1055800080688093B0000093B3006CC08091B0003D
:1055900080628093B0000093B40064C0809190005A
:1055A00080688093900010939900009398005AC0EF
:1055B0008091900080628093900010939B000093F4
:1055C0009A0050C080919000886080939000109362
:1055D0009D0000939C0046C08091A000806880934D
:1055E000A0008091A0008F7B8093A0001093A90061
:1055F0000093A80037C08091A00080628093A00033
:105600001093AB000093AA002DC08091A000886089
:105610008093A0001093AD000093AC0023C0809154
:1056200020018068809320011093290100932801B4
:1056300019C08091200180628093200110932B017A
:1056400000932A010FC0809120018860809320017F
:1056500010932D0100932C0105C0003811050CF0AA
:105660004FCF49CF8091A205882309F4F8C0E0907C
:105670003E02F0903F020091400210914102609181
:10568000B9057091BA056E5F7F4F072E000C880B2D
:10569000990B0E94BDAB9701A8010E94B6AB87FD94
:1056A000DEC03090F80D212C1C821D821E8280915C
:1056B000F70D831509F467C0832D90E048E4489FF7
:1056C000F001499FF00D1124E55CF94F4589568999
:1056D0006789708D452B462B472B89F4418D528D60
:1056E000638D748D452B462B472B49F4458D568D84
:1056F000678D70A1452B462B472B09F43FC058E41A
:10570000589F9001599F300D1124C901855C994F14
:105710006C01FC0161817281838194810E94D9B204
:105720002B013C01F60161A172A183A194A10E9409
:10573000BBAB6F83788789879A87F60165A176A1CD
:1057400087A190A50E94BBAB9B01AC016F817885BE
:1057500089859A850E9425B1A30192010E941CAC03
:105760003B016C01222D3C814D815E810E948BB2F8
:10577000181624F4262C7C82CD82DE8281E0830DF3
:105780008F70382E94CF209136023091370240919D
:10579000380250913902622D7C818D819E810E9458
:1057A0001CAC9701A8010E942BB03B016C0120901A
:1057B0003A0230903B0240903C0250903D029B01E7
:1057C000AC01B701C8010E948BB218166CF09101B0
:1057D000A201B301C6010E948BB218161CF471011C
:1057E000820102C0730186014090BA025090BB0250
:1057F0006090BC027090BD029701A801C301B20184
:105800000E948BB21816C4F420E037ED43EA5CE343
:10581000B701C8010E941CAC6B017C0128E431EE89
:105820004AE75FE3C301B2010E941CACA7019601E5
:105830000E942BB07B018C01C701D8018093BA0272
:105840009093BB02A093BC02B093BD02B701C80104
:105850000E9497B1DC01CB0160E00E94995DF4E603
:105860008F0E911CA11CB11C8092200390922103E9
:10587000A0922203B09223030E94753B8091C00442
:10588000882309F49BC0809105028130A1F08091AA
:105890003A0F806280933A0F81E08093050264EFB3
:1058A00071E080E090E00E94DE950E94CA628091E3
:1058B0003A0F83FD7EC00E94C99C6B017C018091E0
:1058C0000002882359F18091B402882339F1409174
:1058D00025035091260360912703709128039701B7
:1058E0008601041B150B260B370B37FD2AC08330AE
:1058F00079F03CF4813094F00E94D19682EB98E0EC
:105900000BC0843059F40E94D19683E898E004C01B
:105910000E94D1968BE998E00E94029620910002A5
:1059200030E0A8EEB3E00E94F3AFC60ED71EE81E2B
:10593000F91EC0922503D0922603E0922703F0922D
:1059400028038091AC028823C9F10E94C99C009170
:10595000A8021091A9022091AA023091AB02DC01A9
:10596000CB01801B910BA20BB30BB7FD27C00E948C
:10597000C99C6B017C012091AC0230E0A8EEB3E041
:105980000E94F3AFC60ED71EE81EF91EC092A802F1
:10599000D092A902E092AA02F092AB028091F90A99
:1059A0000E94A6368AE00E948F2608C01092240327
:1059B00074CD1092210E0E949B627DCF2A960FB665
:1059C000F894DEBF0FBECDBFDF91CF911F910F9135
:1059D000FF90EF90DF90CF90BF90AF909F908F900F
:1059E0007F906F905F904F903F902F9008951F92FF
:1059F0000F920FB60F9211240F900FBE0F901F90B1
:105A000018951F920F920FB60F9211240BB60F929A
:105A10002F938F939F93EF93FF939091C6002091C4
:105A2000A50FE091A40F81E08E0F8F77281729F042
:105A3000F0E0EC55F04F9283E82FE093A40FFF9134
:105A4000EF919F918F912F910F900BBE0F900FBEF2
:105A50000F901F9018958EBD0DB407FEFDCF0895D1
:105A60008FEF8EBD0DB407FEFDCF8EB508959091DA
:105A700064009B7F90936400982F906A96959CBDDC
:105A800080FD03C091E0863009F490E09DBD08954B
:105A90000F931F93CF93DF93FC012381222311F0F7
:105AA00080E044C08B01EC01FB018789803139F132
:105AB0008032B1F783E08B83F801428D538D648D82
:105AC000758D4D8B5E8B6F8B788F9E012F5E3F4F58
:105AD000C8010E947465882319F31A8F098F81E029
