:100000000C941D0F0C944E0F0C944E0F0C944E0F2D
:100010000C944E0F0C944E0F0C944E0F0C944E0FEC
:100020000C944E0F0C944E0F0C944E0F0C944E0FDC
:100030000C944E0F0C944E0F0C944E0F0C944E0FCC
:100040000C944E0F0C9445850C944E0F0C944E0F4F
:100050000C944E0F0C944E0F0C9491370C94A19E5F
:100060000C944E0F0C94282D0C941E2D0C944E0FB6
:100070000C944E0F0C944E0F0C944E0F0C944E0F8C
:100080000C9488260C944E0F0C944E0F0C944E0F2B
:100090000C944E0F0C944E0F0C944E0F0C944E0F6C
:1000A0000C944E0F0C944E0F0C945A260C944E0F39
:1000B0000C944E0F0C944E0F0C944E0F0C944E0F4C
:1000C0000C944E0F0C944E0F0C944E0F0C944E0F3C
:1000D0000C944E0F0C944E0F0C944E0F0C944E0F2C
:1000E0000C944E0FBD2AC22AC72AD12ADB2A542BD0
:1000F000E52AED2AF52AFF2A092B132B222B2C2B7C
:10010000542B362B402B4A2BBC397E3A833A963AF5
:100110009B3AAE3ABA3AAC3988618B617A617E61BA
:100120008261C2618F61936199619D61A161A761E3
:10013000AB61AF61C261B561B961BD61084AD73BCE
:100140003BCE016E84BCBFFDC12F3D6C74319ABDA6
:1001500056833DDA3D00C77F11BED9E4BB4C3E91CA
:100160006BAAAABE000000803F05A84CCDB2D44EB9
:10017000B93836A9020C50B9918688083CA6AAAABB
:100180002ABE000000803F000C94092B0C94222B07
:100190000C94AB610C94BC390C94132B0C94362B3F
:1001A0000C94B9610C944A2B0C94542B0C94BD2ADA
:1001B0000C94C2610C9493610C94F52A0C9499618F
:1001C0000C94BD610C948B610C94C72A0C94D12AB9
:1001D0000C94B5610C9488610C947E610C94963AF1
:1001E0000C949D610C941CA70C94A7610C94AE3ADE
:1001F0000C948F610C9442A60C94AC390C94C22AD6
:100200000C94402B0C947E3A0C94FF2A0C94A16120
:100210000C94833A0C94BA3A0C949B3A0C947A61FD
:100220000C94E52A0C94AF610C94ED2A0C94826135
:100230000C942C2B0C94DB2A4E414E494E495459B8
:10024000494E46CDCCCC3D0AD7233C17B7D13877A1
:10025000CC2B329595E6241FB14F0A0000204100B7
:1002600000C84200401C4620BCBE4CCA1B0E5AAE01
:10027000C59D74434F4D4D554E49434154494F4ED2
:100280000044525952554E004552524F5253004964
:100290004E464F004543484F005A2050726F6265EA
:1002A0002050617374204265640A004D65736820B4
:1002B000706F696E74206F7574206F662072616E46
:1002C00067650A00456E642066696C65206C697319
:1002D000740A00426567696E2066696C65206C6906
:1002E00073740A004E6F206D656469610A00286EA0
:1002F0006F2066696C65290043757272656E7420A3
:1003000066696C653A20005344207072696E7469A6
:100310006E67206279746520004E6F74205344200C
:100320007072696E74696E670A0044656C65746901
:100330006F6E206661696C65642C2046696C653A55
:10034000200046696C652064656C657465643A00DC
:1003500025697920256964202569682025696D2033
:10036000256973005072696E742074696D653A2056
:10037000006F66660044454255473A004D313132C0
:100380002053687574646F776E004D31313320539C
:10039000004348414D4245525F54454D50455241FE
:1003A0005455524500424142595354455050494ECC
:1003B000470041524353004D4F54494F4E5F4D4FFC
:1003C00044455300544845524D414C5F50524F54A0
:1003D000454354494F4E004C4F4E475F46494C45AC
:1003E0004E414D45004155544F5245504F52545F78
:1003F00053445F5354415455530053444341524472
:100400000050524F4D50545F535550504F5254006E
:10041000454D455247454E43595F50415253455211
:1004200000434153455F4C494748545F4252494756
:1004300048544E45535300544F47474C455F4C4931
:100440004748545300534F4654574152455F504F0D
:10045000574552004255494C445F50455243454E22
:1004600054004C4556454C494E475F444154410069
:100470005A5F50524F42450052554E4F555400411D
:1004800055544F4C4556454C005052494E545F4AC6
:100490004F420050524F4752455353004155544F1D
:1004A0005245504F52545F54454D5000564F4C5595
:1004B0004D455452494300454550524F4D00424925
:1004C0004E4152595F46494C455F5452414E534646
:1004D00045520053455249414C5F584F4E5F584F6B
:1004E0004646004649524D574152455F4E414D45A3
:1004F0003A4D61726C696E20322E302E372E3220CA
:100500002841707220203820323032312031353A83
:1005100033373A34382920534F555243455F434FC0
:1005200044455F55524C3A68747470733A2F2F6784
:1005300069746875622E636F6D2F4D61726C696EA0
:100540004669726D776172652F4D61726C696E20BC
:1005500050524F544F434F4C5F56455253494F4EA4
:100560003A312E30204D414348494E455F54595051
:10057000453A3344205072696E7465722045585470
:1005800052554445525F434F554E543A32205555CB
:1005900049443A63656465326132662D34316132B3
:1005A0002D343734382D396231322D633535633689
:1005B000326633363766660A002F2F2000416363A8
:1005C000656C65726174696F6E3A205000574152D4
:1005D0004E494E4721204C6F77205A204A65726B56
:1005E000206D6179206C65616420746F20756E7771
:1005F000616E746564207061757365732E0A0020E6
:10060000204D61783A200020204D696E3A20005339
:100610006F667420656E6473746F70733A20004661
:10062000523A0020466C6F773A200020536572766C
:100630006F200020643A0020693A0020703A00647C
:1006400069730043290A0061626C656420286D6942
:100650006E2074656D702000436F6C642065787443
:1006600072756465732061726520004D34323120EB
:10067000696E636F727265637420706172616D651B
:100680007465722075736167650A00546F6F206628
:1006900061722066726F6D207265666572656E6349
:1006A0006520706F696E740A00454550524F4D20A9
:1006B00064697361626C65640A003F5A206F7574E7
:1006C000206F662072616E67652028003F59206F99
:1006D0007574206F662072616E676520282D00207A
:1006E000746F20003F58206F7574206F6620726110
:1006F0006E676520282D0050726F6265204F666618
:100700007365742058004D383400446F6E65207056
:1007100072696E74696E672066696C650A004D3790
:1007200037004D33310094028F0288028102730238
:100730002121204B494C4C20636175736564206214
:100740007920746F6F206D75636820696E616374C2
:100750006976652074696D65202D206375727265F8
:100760006E7420636F6D6D616E643A20004D34319C
:1007700030004D313132004D313038004E6F204362
:100780006865636B73756D2077697468206C696E3A
:1007900065206E756D6265722C204C617374204CFF
:1007A000696E653A2000636865636B73756D206DD3
:1007B00069736D617463682C204C617374204C699B
:1007C0006E653A20004C696E65204E756D626572EB
:1007D000206973206E6F74204C617374204C696EB5
:1007E00065204E756D6265722B312C204C617374DF
:1007F000204C696E653A20004D3131300053442061
:1008000072656164206572726F720A006275737935
:100810003A2070617573656420666F7220696E702E
:1008200075740A00627573793A2070617573656436
:1008300020666F7220757365720A00627573793A6B
:100840002070726F63657373696E670A0050726916
:100850006E7465722068616C7465642E206B696CBF
:100860006C28292063616C6C6564210A001000C942
:100870000210012C014001220170011801B0010E8B
:1008800001F00104015002FA00B002F0003003E66A
:1008900000D003DC009004D2007005C800A006BEA2
:1008A000000008B400B009AA00D00BA000600E96AA
:1008B0000060118C000015820020197800C01D6EA8
:1008C00000A0226400B0275A00902C50000031464E
:1008D00000E0343C0010383200903A2800603C1EA2
:1008E00000A03D1400803E0A00203F000020205060
:1008F0006C616E6E6572427566666572427974658A
:10090000733A20002046726565204D656D6F7279DF
:100910003A2000436F6D70696C65643A20417072D3
:1009200020203820323032310A00204C617374208C
:10093000557064617465643A20323032302D313044
:100940002D3135207C20417574686F723A20286EF5
:100950006F6E652C2064656661756C7420636F6EC4
:10096000666967290A00322E302E372E320A004D72
:1009700061726C696E0020536F66747761726520D6
:1009800052657365740A00205761746368646F6709
:100990002052657365740A002042726F776E206F73
:1009A00075742052657365740A0020457874657209
:1009B0006E616C2052657365740A00506F776572C2
:1009C00055700A004D3234004D32332025730061DA
:1009D00075746F25632E67004732385859004D31C2
:1009E000303031006572726F722077726974696E8F
:1009F0006720746F2066696C650A00446F6E65201D
:100A0000736176696E672066696C652E0A004D32E7
:100A1000390020583A00656E6473746F70732068F3
:100A200069743A2000496E76616C69642065787457
:100A300072756465720A0041637469766520457851
:100A40007472756465723A20007C3C3E5E2B3D3FBB
:100A50002F5B5D3B2C2A225C0020423A0020436F32
:100A6000756E7420413A004532004265640045319C
:100A700000626564002C2073797374656D20737453
:100A80006F7070656421204865617465725F4944C8
:100A90003A200048656174696E67204661696C653B
:100AA000640048656174696E67206661696C65649D
:100AB00000544845524D414C2052554E41574159E2
:100AC00000546865726D616C2052756E6177617952
:100AD000004572723A204D415854454D50004D41E9
:100AE0005854454D5020747269676765726564009B
:100AF0004572723A204D494E54454D50004D494E75
:100B000054454D50207472696767657265640020B2
:100B10002F002040002042403A0020403A0070015F
:100B20002C0190012701B0012201C0011D01F0013B
:100B300018011002130130020E0160020901900237
:100B40000401C002FF000003FA004003F500800327
:100B5000F000D003EB002004E6007004E100E004A4
:100B6000DC004005D700C005D2004006CD00D0060D
:100B7000C8008007C3003008BE00F008B900C009F3
:100B8000B400B00AAF00B00BAA00D00CA500000E54
:100B9000A000500F9B00C01096005012910000144E
:100BA0008C00C0158700B0178200B0197D00D01BE3
:100BB0007800001E730040206E0090226900F0242F
:100BC000640040275F0090295A00E02B5500102E4A
:100BD000500020304B0010324600E0334100903589
:100BE0003C001037370070383200A0392D00B03A81
:100BF0002800A03B2300603C1E00103D1900903DE2
:100C00001400103E0F00703E0A00C03E0500003F79
:100C10000000403FFBFF803FF6FFC03FF1FF207424
:100C20006F6F206C6F6E6720657874727573696F73
:100C30006E2070726576656E7465640A0020636F5D
:100C40006C6420657874727573696F6E207072655C
:100C500076656E7465640A00656E717565756569A3
:100C60006E672022006F6B00526573656E643A20D8
:100C70000020573A0023646566696E652044454646
:100C800041554C545F004B6420004B6920004B7071
:100C90002000504944204175746F74756E6520665C
:100CA000696E697368656421205075742074686585
:100CB000206C617374204B702C204B6920616E6432
:100CC000204B6420636F6E7374616E747320667260
:100CD0006F6D2062656C6F7720696E746F20436F53
:100CE0006E66696775726174696F6E2E680A00506E
:100CF0004944204175746F74756E65206661696C36
:100D00006564212074696D656F75740A000A20435B
:100D10006C617373696320504944200A00204B645E
:100D20003A2000204B693A2000204B703A20000AFC
:100D3000204E6F206F76657273686F6F740A0020A3
:100D400054753A2000204B753A2000206D61783AA6
:100D50002000206D696E3A200020643A2000206255
:100D60006961733A2000504944204175746F74756D
:100D70006E652073746172740A0050494420417595
:100D8000746F74756E65206661696C6564212054AA
:100D9000656D706572617475726520746F6F20681F
:100DA0006967680A00504944204175746F74756E14
:100DB00065206661696C6564212042616420657804
:100DC000747275646572206E756D6265720A0020BA
:100DD0005A3A200020593A200042656420583A20AF
:100DE0000050726F62696E67204661696C65640AC3
:100DF00000220A00556E6B6E6F776E20636F6D6D0B
:100E0000616E643A20220020453A00205A3A0020C0
:100E1000593A0000000A0B02090C0D0E08070304E2
:100E200001000000000000000000000000000000C1
:100E300000000000000000000000000000000012A0
:100E40001110000000000000000000000000000081
:100E50000000000000000000000000220025002823
:100E6000002B002E003100340002010000050108B3
:100E7000010B0100002100240027002A002D003072
:100E800000330001010000040107010A0105050506
:100E900005070508080808020202020A0A080804F1
:100EA000040404010101010101010103030303031F
:100EB000030303040707070C0C0C0C0C0C0C0C02AE
:100EC00002020206060606060606060B0B0B0B0BB5
:100ED0000B0B0B01021020200808102040102040AE
:100EE00080020102010804020101020408102040EE
:100EF000808040201008040201800402018040200C
:100F00001008040201080402010102040810204034
:100F100080010204081020408043616E6E6F7420CF
:100F20006F70656E2073756264697220005344208F
:100F300063617264206F6B0A006F70656E526F6F31
:100F400074206661696C65640A00766F6C756D6506
:100F50002E696E6974206661696C65640A004E6F63
:100F600020534420636172640A006F70656E2066CE
:100F700061696C65642C2046696C653A200046699D
:100F80006C652073656C65637465640A0020536941
:100F90007A653A200046696C65206F70656E6564FD
:100FA0003A2000454E4420535542524F5554494E25
:100FB000450A002220706F73002220706172656EF6
:100FC000743A2200535542524F5554494E452043DE
:100FD000414C4C207461726765743A22005375620B
:100FE00063616C6C204F766572666C6F7700457834
:100FF000636565646564206D617820535542524F86
:101000005554494E452064657074683A310A00575A
:10101000726974696E6720746F2066696C653A2026
:1010200000667265736800646F696E67004E6F7763
:1010300020004F46460A004661646520486569679E
:1010400068742000426564204C6576656C696E6743
:1010500020004661696C656420746F20656E616272
:101060006C6520426564204C6576656C696E670A24
:1010700000496E76616C6964206D6573682E0A00A4
:1010800050726F62696E67206D65736820706F695A
:101090006E742000202844525952554E2900473280
:1010A00039204175746F20426564204C6576656C0B
:1010B000696E67003F20284C2C522C462C42292078
:1010C0006F7574206F6620626F756E64732E0A00F0
:1010D0003F2856296572626F7365206C6576656C72
:1010E00020696D706C61757369626C652028302DA4
:1010F00034292E0A00426164205A2076616C75659D
:101100000A004E6F2062696C696E656172206772B9
:1011100069640A00204D393220580020496E7661FA
:101120006C696420657874727564657220006F70F4
:10113000656E00545249474745524544007A5F6DF9
:10114000696E00795F6D696E00785F6D696E00523F
:1011500065706F7274696E6720656E6473746F700A
:10116000207374617475730A00486F6D6520257370
:101170002573257320466972737400486F6D696E1C
:1011800067204661696C6564006563686F3A004575
:1011900072726F723A0042696C696E656172204CBE
:1011A0006576656C696E6720477269643A0A005318
:1011B000544F505045442E20005072696E74657231
:1011C0002073746F707065642064756520746F207F
:1011D0006572726F72732E2046697820746865207C
:1011E0006572726F7220616E6420757365204D396F
:1011F000393920746F20726573746172742E2028DF
:1012000054656D70657261747572652069732072C2
:10121000657365742E20536574206974206166744B
:1012200065722072657374617274696E67290A0051
:1012300021212053544F502063616C6C65642062FF
:10124000656361757365206F6620424C546F7563EA
:1012500068206572726F72202D20726573746172DE
:10126000742077697468204D3939390A0024F4D420
:101270003050C38E20C2A24017828B7011127A9117
:101280000D816CD90AA861E108C75866076151430E
:10129000061E4B5D05C145A7041A411104093D987E
:1012A00003713931034036DB0265339102D4305487
:1012B00002802E1D02632CEE01752AC501B028A004
:1012C00001102781018F2564012B244B01E022347A
:1012D00001AC211F018D200D01801FFC00841EED3B
:1012E00000971DDF00B81CD200E61BC600201BBC07
:1012F00000641AB200B219A8000A19A0006A18996D
:1013000000D117910040178B00B516840031167E6E
:1013100000B31579003A157300C7146F0058146AAA
:1013200000EE1366008813630025135E00C7125B8E
:10133000006C12570015125400C111510070114F6A
:101340000021114B00D61049008D10470046104473
:101350000002104200C00F4000800F3E00420F3CD0
:1013600000060F3B00CB0E3800930E37005C0E35A5
:1013700000270E3400F30D3200C10D3100900D3006
:1013800000600D2E00320D2D00050D2C00D90C2B08
:1013900000AE0C2900850C29005C0C2700350C27B9
:1013A000000E0C2600E80B2400C40B2400A00B2325
:1013B000007D0B23005A0B2100390B2100180B2054
:1013C00000F80A1F00D90A1E00BB0A1E009D0A1D54
:1013D00000800A1D00630A1C00470A1B002C0A1B20
:1013E00000110A1A00F7091A00DD091900C40919C9
:1013F00000AB091900920917007B0918006309174F
:10140000004C09160036091600200916000A0915B5
:1014100000F5081500E0081400CC081400B8081402
:1014200000A4081400900813007D0812006B081334
:101430000058081200460812003408110023081151
:10144000001208110001081100F0071000E0071059
:1014500000D0071000C0071000B0070F00A1071050
:101460000091070E0083070F0074070F0065070E39
:101470000057070E0049070E003B070D002E070E10
:101480000020070D0013070D0006070D00F9060CDC
:1014900000ED060D00E0060C00D4060C00C8060C9A
:1014A00000BC060C00B0060C00A4060B0099060C4C
:1014B000008D060B0082060B0077060B006C060BF6
:1014C0000061060A0057060B004C060A0042060A95
:1014D0000038060A002E060A0024060A001A060A28
:1014E000001006090007060A00FD050900F40509B9
:1014F00000EB050900E2050900D9050900D005093E
:1015000000C7050900BE050900B5050800AD0508BE
:1015100000A50509009C050800940508008C050835
:1015200000840508007C050800740508006C0507A8
:1015300000650508005D050700560508004E050713
:10154000004705070040050800380507003105077A
:10155000002A050700230507001C050600160507DD
:10156000000F0507000805060002050700FB04063A
:1015700000F5040700EE040600E8040600E2040794
:1015800000DB040600D5040600CF040600C90406EB
:1015900000C3040600BD040600B7040600B104053C
:1015A00000AC040600A6040600A00405009B040687
:1015B0000095040500900406008A040500850405D2
:1015C00000800406007A0405007504050070040517
:1015D000006B04050066040500610405005C040559
:1015E0000057040500520405004D04050048040599
:1015F00000430405003E0404003A040500350405D8
:1016000000300404002C0405002704040023040512
:10161000001E0404001A040400160405001104044A
:10162000000D04040009040500040404000004047F
:1016300000FC030400F8030400F4030400F00304B6
:1016400000EC030400E8030400E4030400E00304E6
:1016500000DC030400D8030400D4030400D0030416
:1016600000CC030400C8030300C503030024F404F2
:10167000D9201BC40C5C0E9804C4095F0265077175
:1016800001F405F900FB04B30048048700C10369B5
:10169000005803550003034500BE023A008402319E
:1016A0000053022A002902250004022000E4011C44
:1016B00000C8011900AF011700980114008401133C
:1016C00000710110006101100051010E0043010D75
:1016D0000036010B002B010B0020010B0015010946
:1016E000000C01090003010800FB000800F30008DA
:1016F00000EB000700E4000600DE000600D800064C
:1017000000D2000600CC000500C7000500C200059D
:1017100000BD000400B9000400B5000400B10004DD
:1017200000AD000400A9000400A5000300A200030E
:10173000009F0004009B0003009800030095000236
:101740000093000300900003008D0002008B000353
:10175000008800020086000200840003008100026D
:10176000007F0002007D0002007B00020079000281
:101770000077000100760002007400020072000190
:1017800000710002006F0002006D0001006C000299
:10179000006A0001006900020067000100660001A4
:1017A00000650001006400020062000100610001A8
:1017B00000600001005F0002005D0001005C0001AC
:1017C000005B0001005A00010059000100580001AF
:1017D00000570001005600010055000100540001AF
:1017E00000530000005300010052000100510001AD
:1017F00000500001004F0001004E0000004E0001AB
:10180000004D0001004C0001004B0000004B0001A6
:10181000004A0001004900010048000000480001A2
:10182000004700010046000000460001004500009E
:101830000045000100440001004300000043000196
:101840000042000000420001004100000041000190
:1018500000400001003F0000003F0001003E00008A
:10186000003E0001003D0000003D0001003C000082
:10187000003C0000003C0001003B0000003B000178
:10188000003A0000003A0001003900000039000170
:101890000038000000380000003800010037000068
:1018A000003700010036000000360000003600015D
:1018B0000035000000350000003500010034000054
:1018C0000034000000340001003300000033000049
:1018D000003300010032000000320000003200013D
:1018E0000031000000310000003100010030000034
:1018F0000030000000300001002F0000002F000029
:10190000002F0000002F0001002E0000002E00001C
:10191000002E0001002D0000002D0000002D000011
:10192000002D0001002C0000002C0000002C000005
:10193000002C0001002B0000002B0000002B0000F9
:10194000002B0001002A0000002A0000002A0000ED
:10195000002A0001002900000029000000290000E1
:1019600000290000002900010028000000280000D4
:1019700000280000002800000028000100270000C7
:1019800000270000002700000027000000270001BA
:1019900000260000002600000026000000260000AF
:1019A00000260001002500000025000000250000A1
:1019B0000025000000250000002500010024000093
:1019C0000024000000240000002400000024000186
:1019D000002300000023000000230000002300007B
:1019E000002300000023000000230001002200006B
:1019F000002200000022000000220000002200005F
:101A00000022000100210000002100000021000050
:101A10000021000000210000002100000021000141
:101A20000020000000200000002000000020000036
:101A30000020000000200000002000000020000125
:101A4000001F0000001F0000001F0000001F00001A
:101A5000001F0000001F0000001F0001001E00000A
:101A6000001E0000001E0000001E000000043700E1
:101A7000001E290000511B00005810000010090032
:101A800000CC040000780200004101000000009634
:101A9000430000964300001B4300000000000000CC
:101AA00000000000000000484200004842000080A2
:101AB000400202040000A0400000A04000000040DE
:101AC000FFFFFF5761726E696E673A20486F6D695C
:101AD0006E672042756D702044697669736F72205D
:101AE0003C20310A00486F74656E64206F6666732F
:101AF0006574733A0020520048617264636F6465D4
:101B0000642044656661756C742053657474696EF5
:101B10006773204C6F616465640A003B2000546F5A
:101B20006F6C2D6368616E67696E673A0020204DA7
:101B30003835312058005A2D50726F6265204F663B
:101B4000667365740020204D323039205300417592
:101B5000746F2D526574726163743A20533D302066
:101B6000746F2064697361626C652C203120746F1E
:101B700020696E7465727072657420452D6F6E6C8D
:101B800079206D6F76657320617320726574726160
:101B900063742F7265636F7665720020204D32305A
:101BA000382053005265636F7665723A20533C6C5F
:101BB000656E6774683E20463C756E6974732F6D60
:101BC0003E0020460020570020204D323037205361
:101BD00000526574726163743A20533C6C656E67A1
:101BE00074683E20463C756E6974732F6D3E205AB2
:101BF0003C6C6966743E0020204D3330312050002B
:101C00005049442073657474696E67733A00204AC2
:101C1000002020473239205720490020204D3432FF
:101C2000302053004175746F20426564204C657606
:101C3000656C696E673A0020204D323138205400BF
:101C400020204D323036205800486F6D65206F6679
:101C5000667365743A0020204D32303520420041D1
:101C60006476616E6365643A20423C6D696E5F73B1
:101C700065676D656E745F74696D655F75733E2031
:101C8000533C6D696E5F66656564726174653E2084
:101C9000543C6D696E5F74726176656C5F666565F4
:101CA00064726174653E20583C6D61785F785F6A4C
:101CB00065726B3E20593C6D61785F795F6A657231
:101CC0006B3E205A3C6D61785F7A5F6A65726B3E4D
:101CD00020453C6D61785F655F6A65726B3E0020F0
:101CE000204D323034205000416363656C65726171
:101CF00074696F6E2028756E6974732F7332293A78
:101D000020503C7072696E745F616363656C3E2045
:101D1000523C726574726163745F616363656C3EAB
:101D200020543C74726176656C5F616363656C3EE0
:101D30000020204D3230312058004D6178696D759A
:101D40006D20416363656C65726174696F6E2028F4
:101D5000756E6974732F7332293A00204500205A3A
:101D60000020590020204D3230332058004D61783A
:101D7000696D756D20666565647261746573202890
:101D8000756E6974732F73293A00537465707320EC
:101D900070657220756E69743A0020204D323030C3
:101DA00020530020440020204D32303020540020A9
:101DB00044697361626C65640A0046696C616D65B3
:101DC0006E742073657474696E67733A0020286DB1
:101DD0006D29002020473231202020203B20556EE5
:101DE00069747320696E206D6D000000A0420000D0
:101DF000A0420000A040000048420000A0420000B5
:101E0000A0420000C8430000CE424C0400004C0435
:101E1000000064000000102700004361703A004792
:101E2000322F47332062616420706172616D657486
:101E30006572730A000042A61CA711241FBECFEFD3
:101E4000D1E2DEBFCDBF00E00CBF12E0A0E0B2E007
:101E5000ECE4FBE601E00BBF02C007900D92AC3949
:101E6000B107D9F721E1ACE9B2E001C01D92AA3E69
:101E7000B207E1F71FE0CCE1DFE000E006C0219708
:101E80000109802FFE010E9403B2CB31D10780E00F
:101E90000807A9F70E94EB9E0C9494B50C940000DF
:101EA0002F923F924F925F926F927F928F929F926A
:101EB000AF92BF92CF92DF92EF92FF920F931F9358
:101EC000CF93DF93CDB7DEB7AD970FB6F894DEBFF3
:101ED0000FBECDBF8DA72091B0022CA381E08093CF
:101EE000B0028091E50A8D3409F4E1C2843511F421
:101EF0000C94941F873411F00C94B51F2091E30AC1
:101F00003091E40A2531310511F40C94B71FBCF46B
:101F1000243031053CF4223031050CF05BC037FF32
:101F200030C0C1C22A30310509F4A1C02B303105BF
:101F300009F4A7C02430310509F0B5C259C02A32CE
:101F4000310509F4D0C16CF42D31310509F4AFC06D
:101F50002E31310509F4CAC02C31310509F0A3C274
:101F600096C02B35310509F43BC12C35310509F4F8
:101F70003CC12A35310509F096C21092AF020C948B
:101F8000B71F8091BD04813011F00C94B71F0E94DF
:101F9000D26980917911882311F40C94F21F85E4A1
:101FA0000E945C7C882311F40C94F21F88E50E9447
:101FB0005C7C81110C94F21F89E50E945C7C81118C
:101FC0000C94F21F8AE50E945C7C81110C94F21F34
:101FD0000C94C01F8091BD04813011F00C94B71F88
:101FE0002230310509F080E00E94A1980C94B71FBF
:101FF00080E50E94AA7C882379F08091AD029091BF
:10200000AE02009749F04AE050E060E070E00E94C4
:10201000EBAB6B017C0103C0C12CD12C760183E5B5
:102020000E94AA7C882361F00E94257C20E030E099
:102030004AE754E40E94FDAD0E947FB36B017C012E
:102040000E94BE8C0E94959EC60ED71EE81EF91EE9
:102050000E94959EDC01CB018C199D09AE09BF0938
:10206000B7FD02C00C94B71F0E94E227F1CF60E0D9
:1020700083E50E94BB6E682F81E00E94B77C0C94C0
:10208000B71F60E080E00E94B77C0C94B71F80917E
:1020900073058770873011F00C94242060E08FE482
:1020A0000E94BB6E81110C94B71F0C9424200E94D7
:1020B000959E60936E0B70936F0B8093700B909353
:1020C000710B87E00E94DD7381110C94B71F809122
:1020D0008B0B882311F40C94572160E08FE40E944D
:1020E000BB6E81110C94B71F0C9457212091740B77
:1020F0003091750B4091760B5091770B6091A90B45
:102100007091AA0B8091AB0B9091AC0B0E940CB21A
:10211000AB01BC0188E50E94584F69837A838B83A9
:102120009C832091780B3091790B40917A0B5091E0
:102130007B0B6091AD0B7091AE0B8091AF0B9091CA
:10214000B00B0E940CB2AB01BC0189E50E94584F54
:102150006D837E838F839887BE016B5F7F4FCE0137
:1021600001960E94D66A882311F40C94B71F80E070
:102170000E948A800E94517861E085E40E94BB6ED3
:1021800021E0482FBE016B5F7F4FCE0101960E9478
:102190004F5F6B017C019B01AC010E94FEB4811179
:1021A00019C049815A816B817C8189ED9DE00E9433
:1021B00045844D815E816F81788584ED9DE00E942C
:1021C0004584B701A6018FEC9DE00E9445848AE01A
:1021D0000E94B6260E9438780E94907A0C94B71F0D
:1021E0008FE08093AF020C94B71F1DE6212E12E002
:1021F000312E0BE5E02E01E1F02EA9EABBE0B9A3F8
:10220000A8A380E9C82E8BE0D82E00E010E0F101F1
:1022100081911F010E94AA7C882309F44AC00E9470
:10222000257C2B013C01133049F0D6012D913D91C5
:102230004D915C910E940BB22B013C01E8A1F9A1E8
:102240002081318142815381C301B2010E940BB2CE
:102250004B015C012DEB37E346E855EB0E946CB473
:1022600087FD0AC02DEB37E346E855E3C501B4010D
:102270000E9497AD1816ECF4133051F44092B50B50
:102280005092B60B6092B70B7092B80B01E011C080
:10229000A5019401D7016D917D918D919C910E9432
:1022A0000CB2F7016083718382839383812F0E9434
:1022B00020921F5FF4E0EF0EF11C28A139A12C5FE2
:1022C0003F4F39A328A334E0C30ED11C143009F0CA
:1022D0009ECF002321F085EB9BE00E94124F0E94CD
:1022E000907A0C94B71F8091BD04813011F00C944A
:1022F000B71F89E40E94AA7CE82E882321F00E945F
:10230000D06E082F01C000E08AE40E94AA7CF82E5B
:10231000882321F00E94D06E182F01C010E0EE201B
:1023200011F0033020F4FF2041F0133030F08BEA3D
:1023300092E00E94AB830C94B71F80E1E9EAFBE0D6
:10234000A3E6B5E001900D928A95E1F7EE2019F130
:10235000602F000F770B880B990B0E949EAD209188
:1023600071113091721140917311509174110E944A
:10237000FDAD20919C0230919D0240919E025091B2
:102380009F020E940CB26093630570936405809372
:10239000650590936605FF2019F1612F110F770BEA
:1023A000880B990B0E949EAD20917511309176118A
:1023B00040917711509178110E94FDAD2091A002BB
:1023C0003091A1024091A2025091A3020E940CB24E
:1023D00060936705709368058093690590936A051B
:1023E00060E080E50E94BB6E8823C1F1EE20D1F051
:1023F0002091740B3091750B4091760B5091770BB7
:102400006091630570916405809165059091660502
:102410000E940BB260936305709364058093650519
:1024200090936605FF20D1F02091780B3091790BC5
:1024300040917A0B50917B0B609167057091680514
:102440008091690590916A050E940BB260936705BF
:10245000709368058093690590936A0540E050E0A9
:10246000BA0186E40E94584F6B017C0120E030E005
:10247000A9010E946CB418164CF420E030E040E74B
:1024800052E4C701B6010E9406B303C060E070E0E9
:10249000CB0169837A838B839C83CE0101960E9452
:1024A00070780C94B71F0E94DF5E0C94B71F0091E8
:1024B000E30A1091E40A0737110509F439C70CF053
:1024C000BDC00135110509F462C50CF055C00A31D3
:1024D000110509F443C21CF50531110509F4EDC1DC
:1024E00074F40231110509F46FC50431110509F4C2
:1024F000B3C10131110511F00C94911F99C107313D
:10250000110509F4EEC10CF4DCC10831110509F420
:10251000FDC10931110509F405C20C94911F0F3159
:10252000110509F42FC384F40C31110509F477C2A5
:102530000CF422C20D31110509F479C20E311105D6
:1025400009F47CC20C94911F0B34110509F4C1C32A
:1025500034F40032110509F4D2C20C94911F0C34EA
:10256000110509F4BAC30D34110511F00C94911F33
:102570000E94007C0C94B71F0C36110509F488C426
:1025800054F50C35110509F478C584F403351105AB
:1025900009F413C50CF40AC50435110509F414C572
:1025A0000535110509F446C50C94911F093611052E
:1025B00009F4CFC334F40836110509F4A3C30C940D
:1025C000911F0A36110509F4D8C30B36110509F419
:1025D000FCC30C94911F0137110509F461C4B4F4D4
:1025E0000E36110509F4FCC30CF4AFC30F36110508
:1025F00009F409C40037110511F00C94911F41E052
:1026000060E070E08CE793E00E94E124033711055D
:1026100009F4D8C50CF4CFC50537110511F40C9495
:10262000B71F0637110511F00C94911F0091E10AB4
:102630001091E20A94E0F12C40E05DC6083181E09F
:10264000180711F40C94E41C0CF05EC00D3C11054D
:1026500009F458C754F50E3B110509F46CC484F411
:102660000937110509F46FC60CF465C60C3811055D
:1026700009F440C40B39110509F461C40C94911F8D
:10268000093C110509F4C8C634F4083C110509F4E5
:1026900061C60C94911F0B3C110509F4E1C60C3C7A
:1026A000110509F4FEC60C94911F033D110511F4A8
:1026B0000C944C1B84F40F3C110509F450C70CF426
:1026C00031C7003D110509F48EC7013D110509F41C
:1026D000D4C70C94911F0A3D110511F40C94251CCC
:1026E0003CF4093D110511F40C94121C0C94911F3B
:1026F0000C3D110511F40C94671C0D3D110511F4EE
:102700000C948E1C0C94911F0C3AA1E01A0711F442
:102710000C94C61E0CF042C00139E1E01E0711F412
:102720000C94431EECF40E3221E0120711F40C94C9
:10273000FC1D3CF40D32114011F40C947B1D0C94E3
:10274000911F0F3291E0190711F40C94401E0039CB
:10275000114011F00C94911F0E94BE8C0C94B71F75
:102760000A39B1E01B0709F497C35CF40239114040
:1027700011F00C94911F0E94CD6A0E94907A0C94E3
:10278000B71F043A21E0120711F40C944D1E053ACC
:10279000114011F40C94501E0C94911F0C3082E0E7
:1027A000180711F40C942D1F4CF5053FA1E01A07F2
:1027B00011F40C94241F6CF4043F114011F00C949C
:1027C000911F0E94768489EA96E00E94AB830C9464
:1027D000B71F063FF1E01F0711F40C942A1F073FB3
:1027E000114011F00C94911F61E083E50E94BB6ED3
:1027F00091E089270E941D950C94B71F003A33E0A1
:10280000130709F4B1C13CF40335134011F40C94DF
:102810003A1F0C94911F073EA3E01A0711F40C9481
:102820006B1F093E134011F40C94771F0C94911FF9
:102830008091DD0A84FF02C00C945A218091DF0A46
:1028400087FF02C00C945A218091E00A837011F036
:102850000C945A210C9477218091E50F83FF25C0B9
:1028600083ED92E00E94AB838091E50F83FF17C058
:102870008DE19EE00E94202F8BE1EDE1FEE0DE0184
:10288000119601900D928A95E1F760E070E0CE011B
:1028900001960E94C568CE0101960E94252F84EC06
:1028A00092E00E94AB830C94B71F0E94418584EE96
:1028B00092E00E94AB830C94B71F0E94C5620C94F7
:1028C000B71F8091E50F82FF02C00C94B71F0E94D2
:1028D000AE628091E50F877F80628093E50F0C9454
:1028E000B71FE091E10AF091E20A8081882329F084
:1028F000803209F410823196F8CF60E08091E10ACD
:102900009091E20A0E94AB670C94B71F0E942D259C
:10291000882311F40C94B71F0E94BD620E94DC7BD7
:102920000C94B71F8091E50F82FF03C08B7F8093CB
:10293000E50F8091C510813011F00C94B71F82E033
:102940008093C5100E94959E6093C1107093C21031
:102950008093C3109093C4100C94B71F8091E50F1F
:1029600083FD02C00C94B71F83E50E94AA7C8111ED
:102970000C9481210C94B71F83E40E945C7C882313
:1029800019F188EF92E00E94AB838091C70D8823F4
:1029900091F0BE016F5F7F4F84EC9DE00E94E72DB8
:1029A0008E010F5F1F4FF80181918F01882339F04D
:1029B0000E94B626F8CF8EEE92E00E94AB838AE0AA
:1029C0000E94B6260C94B71F8091E50F82FF21C0AC
:1029D00087E093E00E94AB836091E10F7091E20F7A
:1029E0008091E30F9091E40F4AE00E94BD268FE2B0
:1029F0000E94B6266091DD0F7091DE0F8091DF0F8F
:102A00009091E00F4AE00E94BD260E94BB270C94E3
:102A1000B71F89E193E00E94AB830C94B71F8091AC
:102A2000E10A9091E20A0E9467670C94B71F8091B7
:102A3000E50F8E7F8093E50F0C94B71F8091E50F13
:102A400083FD02C00C94B71F0E94C85E8091E50F01
:102A500083FD02C00C94B71F4091E10A5091E20A35
:102A6000BE01645E7F4F80E00E94705C8C01009725
:102A700011F40C94B71F6C8D7D8D19821C8222E09D
:102A8000AC01CE0101960E945533811102C0F12C98
:102A900014C0CE0101960E94DE5B8823C1F361E081
:102AA000CE0101960E94CB2D009789F325EEDC0123
:102AB0002C931C820E94E363F82ECE0101960E94A3
:102AC000252FB801FF2089F082E493E00E946384FF
:102AD0008AE00E94B6261092E10F1092E20F109247
:102AE000E30F1092E40F0C94B71F8AE293E00E9468
:102AF000638482EF90E10E94AB830C94B71F8091B6
:102B0000E50F82FD0E94BE8C8091E50F83FD02C01F
:102B10000C94B71F60E080E50E94BB6E182F682FF1
:102B20008091E10A9091E20A0E94AB6783E50E94DE
:102B3000AA7C882381F00E94157CAB01BC014093E4
:102B4000E10F5093E20F6093E30F7093E40F84EC76
:102B50009DE00E9409660E94BD6211110C94B71F8E
:102B60000E94DC7B0C94B71F2091E10A3091E20AAD
:102B70009091E50F92609093E50FC9010E946767FD
:102B80000C94B71F0E948D7B7B018C0120E831E5FE
:102B900041E050E00E9488B1C9016DE671E00E94F9
:102BA000EFB14B015C01C801B70120E13EE040E01C
:102BB00050E00E9488B1CA01B90128E130E040E04C
:102BC00050E00E9488B1762E672EC62ED72EBCE329
:102BD0002B2E312C412C512CC801B701A20191019F
:102BE0000E9488B1F62EE72ECA01B901A201910117
:102BF0000E9488B1CB018E010F5F1F4F8114910499
:102C000099F0EF92FF927F936F936F927F92BF92B2
:102C1000AF929F928F9280E593E09F938F931F9343
:102C20000F930E9468AD13C0A114B104B1F0EF92EC
:102C3000FF927F936F936F927F92BF92AF9284E5E2
:102C400093E09F938F931F930F930E9468AD0FB6ED
:102C5000F894DEBF0FBECDBF30C0CD2879F0EF9223
:102C6000FF927F936F936F927F9288E593E09F939B
:102C70008F931F930F930E9468ADE9CF892B69F062
:102C8000EF92FF927F936F938CE593E09F938F93E6
:102C90001F930F930E9468ADDACFEF92FF9280E608
:102CA00093E09F938F931F930F930E9468AD0F90B3
:102CB0000F900F900F900F900F900E944185B801D8
:102CC00084E693E00E9463848AE00E94B6260C9416
:102CD000B71F0E94DC7B0C94B71F8091C510813018
:102CE00011F00C94B71F82E08093C5100E94959E4E
:102CF0006093C1107093C2108093C3109093C4105E
:102D00000C94B71F8091B80A83FF02C00C94B71FC0
:102D10000E94996C182F87FF02C00C94B71F83E59F
:102D20000E94AA7C882369F00E94257C0E9478B3C7
:102D3000DC01CB01612F0E94B25561E080E00E946E
:102D4000C9370E94684E0C94B71F0E9407560C9416
:102D5000B71F0E94996C182F87FD0AC085E69CE07A
:102D60000E94AB83812F0E94CD368AE00E94B62656
:102D7000BCA1B093B0020C94E52360E080E50E9412
:102D8000C36C81110C94B71F81E40E945C7C882382
:102D900041F0E091A40BF0E0EA5DF94F6081062F6D
:102DA00002C00FEF10E083E50E94AA7C882349F05F
:102DB0000E94157C8B016F3F710519F010F00FEF29
:102DC00010E0009326060C94B71F60E080E50E9497
:102DD000C36C81110C94B71F109226060C94B71F78
:102DE0008EE40E94AA7C882311F40C94B71F0E94E1
:102DF000157C60936A0B70936B0B80936C0B9093B4
:102E00006D0B0C94B71F83E50E945C7C882331F026
:102E100060E083E50E94C36C8093B80A0E944185FC
:102E200085E793E00E94AB838091B80A882369F11B
:102E3000A6E2EA2EA7E0FA2E00E010E020E0809162
:102E4000B80A90E0A0E0B0E0002E04C0B695A795C7
:102E5000979587950A94D2F780FF0EC0DD24D3940E
:102E6000D20E222319F08CE20E94B626F70185913A
:102E700094910E94AB832D2D0F5F1F4FE2E0EE0E69
:102E8000F11C05301105D9F69ACD81E793E095CD77
:102E9000109218020C94B71F0E940D250C94B71FB6
:102EA00083E50E94AA7C882381F00E94856C282FEC
:102EB00030E02D33310524F4809300020C94B71FC9
:102EC0008CE3809300020C94B71F0E944185C09050
:102ED0000002D12CE12CF12C8AE893E00E94AB8314
:102EE0004AE0C701B6010E94BD268AE00E94B626CC
:102EF0000C94B71F8091B80A83FF02C00C94B71FCF
:102F000083E50E94AA7C882311F40C94B71F0E94C9
:102F1000257C0E9478B36C3871050CF48B011093FA
:102F2000AC050093AB050E94E63761E080E00E94AB
:102F3000C9370C94B71F0E940C540C94B71F83E53B
:102F40000E94AA7C882311F40C94B71F0E94856C00
:102F5000182F90E0CD970CF01CE31093A8020E946C
:102F6000959E6B017C01212F30E0A8EEB3E00E941A
:102F7000D4B1C60ED71EE81EF91EC092A402D0928C
:102F8000A502E092A602F092A7020C94B71F0E943D
:102F90001E380E94007C0E94CE8C0E943B2568EE69
:102FA00073E080E090E00E94EC82E1C78091AF0284
:102FB0008F7D80618093AF02DAC78091AF028F7EF0
:102FC00080628093AF02D3C783E50E94AA7C8823E6
:102FD000E9F00E94959E60936E0B70936F0B809347
:102FE000700B9093710B0E94257C20E030E04AE743
:102FF00054E40E94FDAD0E947FB360930102709380
:1030000002028093030290930402B1C78091DD0A0B
:1030100084FF02C00C9492218091DF0A87FF02C0D6
:103020000C9492218091E00A837011F00C9492210B
:103030000C94C32183E50E945C7C882309F497C724
:103040000E94959E60936E0B70936F0B8093700B34
:103050009093710B0E94257C20E030E04AE754E415
:103060000E94FDAD0E947FB36093A9027093AA02F3
:103070008093AB029093AC027AC70E94996C87FD53
:1030800076C79091DD0A94FD04C09091DF0A97FF06
:103090000AC0EDE6CE2EE2E0DE2EFFEFEF2EF4E0EA
:1030A000FF2E10E009C09091E00A937091F7682F0D
:1030B00081E00E94836A5BC7D6018D916D010E94F9
:1030C000AA7C882309F46DC0133009F063C00E9404
:1030D000257C4B015C0120E030E040EA51E40E9495
:1030E00097AD87FF4EC0A501940160911F057091B7
:1030F000200580912105909122050E9406B32B01A5
:103100003C019B01AC016091CA117091CB1180917F
:10311000CC119091CD110E94FDAD6093CA117093B6
:10312000CB118093CC119093CD11A30192016091AA
:103130002F057091300580913105909132050E94E4
:10314000FDAD60932F05709330058093310590930A
:103150003205609122067091230680912406909199
:1031600025060E949CADA30192010E94FDAD0E9424
:103170007FB3609322067093230680932406909376
:10318000250680921F0590922005A0922105B092FD
:10319000220507C00E94257CF701648B758B868B06
:1031A000978B1F5FF4E0EF0EF11C143009F084CF11
:1031B0000E94EE4EDCC60E94E65D88EB9EE00E9417
:1031C000163FD5C683EE94E00E94AB8360E083EDAA
:1031D00094E00E94C89D60E08EEB94E00E94C89D40
:1031E00060E087EB94E00E94C89D61E08CEA94E087
:1031F0000E94C89D61E08CE994E00E94C89D60E057
:1032000083E994E00E94C89D61E089E894E00E940F
:10321000C89D61E08FE794E00E94C89D60E088E768
:1032200094E00E94C89D61E080E794E00E94C89D00
:1032300061E082E694E00E94C89D60E084E594E04D
:103240000E94C89D60E085E494E00E94C89D60E013
:1032500087E394E00E94C89D60E081E294E00E94D0
:10326000C89D60E080E194E00E94C89D60E081E03C
:1032700094E00E94C89D61E08AEF93E00E94C89D9F
:1032800060E085EE93E00E94C89D60E087ED93E0EA
:103290000E94C89D61E084EC93E00E94C89D60E0BC
:1032A00087EB93E00E94C89D61E082EB93E00E946F
:1032B000C89D60E085EA93E00E94C89D60E081E9D6
:1032C00093E00E94C89D53C6D8018C91282F2B7F74
:1032D0002134A1F08035F9F4F801818180538A30DE
:1032E000D0F498012E5F3F4F89012F5F3F4FD801E7
:1032F0008C918032C9F3915039F70DC011962C9101
:10330000213349F4813421F0853459F741E0E9CF84
:10331000FF24F394E6CF41110E944185FF2021F064
:1033200089EB95E00E94AB83C8010E94C1271FC6AC
:103330000E94297B1CC681E0809329038093280387
:103340000E947E7B14C610922903109228030E94CB
:103350007E7B0DC60E94996C182F87FD08C60091D0
:10336000D61184E40E94AA7C882311F40C94C6210F
:103370000E94257C6B017C0120E030E0A9010E94C5
:1033800097AD882309F442C0B4E01B02F001112478
:10339000E253FE4EC082D182E282F38220E030E02E
:1033A000A9016091CE117091CF118091D0119091AF
:1033B000D1110E9497AD81110CC080E090E0A0EE89
:1033C000BFE38093CE119093CF11A093D011B0930F
:1033D000D11120E030E0A9016091D2117091D31198
:1033E0008091D4119091D5110E9497AD81110CC09C
:1033F00080E090E0A0EEBFE38093D2119093D311D0
:10340000A093D411B093D51101E0C0C780E08093A0
:10341000D6110E94A38DABC50E94996C87FDA7C5EC
:103420007DE6E72E72E0F72E0FEF14E0F7018191B1
:103430007F010E945C7C882361F00E94257C0E94B1
:103440007FB3D8016D937D938D939C9313970E94C6
:10345000A74E0C5F1F4FB5E00F301B0739F787C52C
:103460000E94996C87FD83C56DE6E62E62E0F62E1C
:103470000FEF14E0F70181917F010E945C7C8823AB
:1034800049F00E94257CD80194966D937D938D938D
:103490009C9397970C5F1F4FB5E00F301B0751F7B8
:1034A00066C58091DE0A87FD76C78091DF0A8E703F
:1034B00009F071C74091330550913405609135058D
:1034C000709136058DEB95E00E944584409137055B
:1034D000509138056091390570913A0585EF9AE170
:1034E0000E94458440913B0550913C0560913D050B
:1034F00070913E058CEA9DE10E9445848AE00E941D
:10350000B62635C58091DD0A827109F08AC780919F
:10351000DF0A8C7809F085C78091E00A837009F092
:1035200080C725C55BE2E52E53E0F52E10E088E567
:10353000810F0E945C7C882351F00E94257CF7015A
:103540006083718382839383812F0E9420921F5F07
:10355000F4E0EF0EF11C133051F70C946F1183E57A
:103560000E945C7C882351F00E94257C60937A1134
:1035700070937B1180937C1190937D1186E40E945F
:103580005C7C882381F00E94257C20E030E040E7CD
:1035900052E40E9406B360937E1170937F11809372
:1035A0008011909381118AE50E945C7C882351F000
:1035B0000E94257C60938211709383118093841103
:1035C0009093851187E50E945C7C882309F4CFC421
:1035D0000E94257C60938E1170938F1180939011BF
:1035E00090939111C4C483E50E945C7C882351F0C0
:1035F0000E94257C609386117093871180938811B7
:103600009093891186E40E945C7C882381F00E945B
:10361000257C20E030E040E752E40E9406B360934E
:103620008A1170938B1180938C1190938D1182E588
:103630000E945C7C882381F00E94257C20E030E0A1
:1036400040E752E40E9406B360939611709397117D
:10365000809398119093991187E50E945C7C882350
:1036600009F485C40E94257C609392117093931194
:1036700080939411909395117AC483E50E945C7CA9
:10368000882309F474C40E94CF6C8093791110923E
:103690006F11109270116BC44090900B5090910B71
:1036A0006090920B7090930B20911B0230911C0242
:1036B00040911D0250911E02C301B2010E940CB242
:1036C00068A379A38AA39BA38090940B9090950BF9
:1036D000A090960BB090970B20911F023091200282
:1036E0004091210250912202C501B4010E940CB206
:1036F0006DA37EA38FA398A7C090980BD090990B31
:10370000E0909A0BF0909B0B2091230230912402C1
:103710004091250250912602C701B6010E940CB2C9
:1037200069A77AA78BA79CA720912702309128022E
:103730004091290250912A02C301B2010E940CB2A9
:103740002B013C0120912B0230912C0240912D0243
:1037500050912E02C501B4010E940CB24B015C01D4
:1037600020912F023091300240913102509132026B
:10377000C701B6010E940CB26B017C010E94418519
:103780008FE096E00E94AB8383E50E945C7C8823F7
:1037900021F00E94CF6C8093190280911902882336
:1037A00019F08EE792E002C08FED94E00E94AB83A7
:1037B00087E096E00E94AB8348A159A16AA17BA152
:1037C00087E39DE10E9445844DA15EA16FA178A58C
:1037D00081E69DE10E94458449A55AA56BA57CA57B
:1037E0008EE59DE10E94458487EB91E10E94AB83C9
:1037F0008FEF95E00E94AB83B301A20187E39DE1C7
:103800000E944584B501A40181E69DE10E944584A2
:10381000B701A6018EE59DE10E9445848AE00E94E1
:10382000B626A5C38AE50E94AA7C882351F00E948F
:10383000257C60935F05709360058093610590938C
:10384000620580E00E94BE6A92C30E94996C182FA4
:1038500087FD8DC388E50E94AA7C882361F00E94C1
:10386000257C2CE01202F0011124E95BFA4F608301
:1038700071838283938389E50E94AA7C882361F007
:103880000E94257C3CE01302F0011124E95BFA4F11
:1038900064837583868397838AE50E94AA7C882344
:1038A00061F00E94257CACE01A02F0011124E95B72
:1038B000FA4F60877187828793878091DF0A87FD3F
:1038C00056C38091E00A837009F051C32FC683E587
:1038D0000E94AA7C882331F00E94D06E90935902F6
:1038E000809358028091DD0A9091DE0AA091DF0A50
:1038F000B091E00A892B8A2B8B2B09F038C3609199
:103900005802709159028FE196E00E94568485E238
:103910000E94B6268AE00E94B62629C30E94996CAE
:10392000F82E87FD24C383E50E94AA7C0F2D0F2C5F
:10393000000C110B882369F10E94D06EF801EE0F84
:10394000FF1FE759FD4F91838083000F111F000F68
:10395000111F98012E5B3D4F7901BC01990F880B17
:10396000990B0E949EAD2AE037ED43E25CE30E9492
:10397000FDADF801E959FE4E20813181428153812C
:103980000E94FDADD7016D937D938D939C9313970A
:10399000EEC20E94418585E40E94B62680E38F0D29
:1039A0000E94B626000F111FF801E759FD4F6081F4
:1039B000718183E296E00E94568485E20E94B626D9
:1039C0008AE00E94B626D3C280E50E945C7C8823F0
:1039D00009F4CDC20E94D06E8C01892B09F07FC002
:1039E00083E50E945C7C882389F00E94D06E8F3F23
:1039F000BFEF9B0729F48CE99EE00E943E25B7C2E9
:103A0000BC018CE99EE00E946D25B1C20E944185F7
:103A100060E070E08BE296E00E94568480919E0EFA
:103A200028E532E06901C81AD10887FDD394CC0C8F
:103A3000DD1CCC0CDD1C0D2C000CEE08FF08809169
:103A40009D0E28E830E04901881A910887FD93947B
:103A5000880C991C880C991C092C000CAA08BB081E
:103A600080919C0E8F3FC1F090E0FC01EE0FFF1F94
:103A70008E0F9F1FFC01ED5AF14F2181328113E01F
:103A8000220F331F1A95E1F704E0369527950A9522
:103A9000E1F72E5F3F4F02C020E030E02F5F3F4F45
:103AA000C901330FAA0BBB0B9C01AD0128193909C1
:103AB0004A095B09A4EBB0E00E94C9B1A7019601D5
:103AC000281939094A095B090E94AAB1B90180E99C
:103AD0009AE00E9456848AE00E94B62648C20E945C
:103AE0007684B8018CE296E00E94568485EB92E0E1
:103AF0000E94AB833CC260E085E40E94C36C8230CC
:103B000008F073C080E50E945C7C882351F00E941D
:103B1000257C6093B9057093BA058093BB0590939B
:103B2000BC0589E40E945C7C882381F00E94257C8E
:103B30002CEA35EC47E25EE30E94FDAD6093BD05E3
:103B40007093BE058093BF059093C00584E40E94E6
:103B50005C7C882381F00E94257C2CEA35EC47E2CE
:103B60005EE30E9406B36093C1057093C205809323
:103B7000C3059093C4050E9441854091B9055091B9
:103B8000BA056091BB057091BC058BE396E00E947D
:103B900045842CEA35EC47E25EE36091BD05709107
:103BA000BE058091BF059091C0050E9406B3AB0190
:103BB000BC0187E396E00E9445842CEA35EC47E29D
:103BC0005EE36091C1057091C2058091C30590913B
:103BD000C4050E94FDADAB01BC0183E396E00E94E9
:103BE00045848AE00E94B626C2C10E94768485E29E
:103BF0009AE00E94AB83BBC183E50E945C7C182FD6
:103C0000882371F00E94257C0E9478B370934B0248
:103C100060934A0221E0672B09F020E020933706E9
:103C200080E50E945C7C882359F020914A02309103
:103C30004B02232B11F00E94CF6C8093370697C163
:103C4000111195C10E94418588E596E00E94AB83E1
:103C500080913706882319F080E391E102C08FE359
:103C600096E00E94AB8360914A0270914B0287E418
:103C700096E00E94568483E496E00E94AB8377C16D
:103C80000E946F4F74C18091730B81110C946F115E
:103C900081E00E945A940C946F110E94DF6C67C1FE
:103CA0006FEF7FEF89E40E94D46E082F6FEF7FEFF4
:103CB0008AE40E94D46E182F8AE50E94AA7C8111A2
:103CC00008C081E50E94AA7CB82E882309F462C44A
:103CD00001C0B12CA02E81E0800F843008F04FC0CD
:103CE000912E81E0810F843008F049C00E94257C2C
:103CF0002B013C01F02E07FDF12C07FF02C0A2E0D2
:103D0000AA2E812E17FD812C17FF02C0F2E09F2EF4
:103D1000AF1408F42CC1E82C8F2D90E06C01CC0C72
:103D2000DD1CC80ED91E9E1440F10E2D10E0BB20E4
:103D300071F0F601E00FF11FEE0FFF1FEE0FFF1FF6
:103D4000E656FE4E208131814281538103C020E03E
:103D500030E0A9010C0D1D1D000F111F000F111FD8
:103D600006561E4EC301B2010E940CB2F8016083D8
:103D7000718382839383E394D6CFF394C9CF0E9457
:103D800076848BEA92E00E94AB83F1C087E00E94C8
:103D9000DD738111ECC009E91AE129EA3BE039A39E
:103DA00028A3CE0101961C0190ECC92E9AE1D92ED0
:103DB0007101F8016591759185919491A8A1B9A1BE
:103DC0008D909D90AD90BD90B9A3A8A3A50194013D
:103DD0000E940BB22B013C01F70160837183828347
:103DE000938320E030E040EA51EC0E946CB487FD00
:103DF0000AC020E030E040EA51E4C301B2010E9471
:103E000097AD18162CF4F601849118160CF4C9C35A
:103E1000D7018D909D90AD90BD907D0120E030E068
:103E200040EA51ECC501B4010E946CB487FDC4C3E3
:103E300020E030E040EA51E4C501B4010E9497ADB2
:103E400018160CF0C0C3B8C30E945C9280E00E94B8
:103E50001D958DC00E945C928AC08091E50F82FF03
:103E600004C080648093E50F82C083FF80C00E94FD
:103E7000C85E7DC08091DF0A87FDCAC38091E00AD9
:103E8000837009F0C5C34091740B5091750B60911C
:103E9000760B7091770B87EF96E00E9445844091F6
:103EA000780B5091790B60917A0B70917B0B81E6C6
:103EB0009DE10E94458440917C0B50917D0B609167
:103EC0007E0B70917F0B8EE59DE10E9445848AE018
:103ED0000E94B6264CC081E08093BD0460E083E57B
:103EE0000E94BB6E811143C00E941C5840C00E94BA
:103EF0008D7B6D3371058105910520F082E297E09D
:103F00000E94E29D8EE197E00E94E29D8AE097E0A8
:103F10000E94AB8386E097E0909339038093380347
:103F200026C00E94DF5E23C01091E30A0E94959E86
:103F300060936E0B70936F0B8093700B9093710B6B
:103F4000212F012E000C330B8091A40B90E0281739
:103F5000390729F060E083E50E94BB6E01C081E073
:103F6000682F812F0E94463402C00E94DF5EFDA5AB
:103F7000F11102C00E940C582CA12093B00225C45C
:103F800080906F0590907005A0907105B0907205BB
:103F90002091B50B3091B60B4091B70B5091B80BF7
:103FA000C501B4010E940BB26B017C0120E030E03E
:103FB000A9010E946CB487FFFBC32DEC3CEC4CECD8
:103FC0005DEBC701B6010E9497AD18165CF0C70102
:103FD000B601905820E030E040E251E40E9497ADF5
:103FE00018161CF40E94D074C2CF0091A40B10E0EC
:103FF00001591E4E7724739420E030E0A901C701D7
:10400000B6010E946CB418160CF0712CD8018C917A
:104010008711E8CF8092B50B9092B60BA092B70BA8
:10402000B092B80B85EB9BE00E94124F20E030E08D
:10403000A901C701B6010E9497AD60E0881F8827DB
:10404000881F0E94B77C93CF0E94BE8C10921A02E8
:1040500080E00E948A800E94959E60936E0B709310
:104060006F0B8093700B9093710B3090A40B61E0F9
:1040700080E00E9446340E94517881E080932903B9
:104080000E947E7B8AE50E945C7C082F8823A1F039
:1040900081E00E94CA73F82E82E00E94CA7311E088
:1040A000811101C010E0F110EFC088E50E945C7C36
:1040B000E82E8111E9C002C010E0F7CF1111EDC068
:1040C00089E50E945C7CF82E8113E2C00113E2C0F6
:1040D000FF24F394EE24E39411E082E50E94AA7C8D
:1040E000882319F00E94257C04C060E070E080EA1B
:1040F00090E46C8F7D8F8E8F9F8F20E030E0A90140
:104100000E9497AD882359F0E11005C0F11003C05B
:10411000112309F4AAC0CE014C960E94ED5EEE2058
:1041200019F080E00E9404A8FF2019F081E00E94AD
:1041300004A8112309F499C080E00E94308383E031
:104140000E94DD73811191C00E948E7A8091B10B23
:104150009091B20BA091B30BB091B40B88A399A32B
:10416000AAA3BBA32091740B3091750B4091760BE1
:104170005091770B60E070E086E193E40E940BB20F
:104180004B015C0160936305709364058093650542
:10419000909366052091780B3091790B40917A0BC2
:1041A00050917B0B60E070E086E193E40E940BB2DB
:1041B0002B013C0160936705709368058093690546
:1041C00090936A0520917C0B30917D0B40917E0B82
:1041D00050917F0B68A179A18AA19BA10E940BB28B
:1041E00060936B0570936C0580936D0590936E05DD
:1041F00027E137EB41ED58EBC301B2010E946CB4EB
:1042000087FD4EC023E030E046E953E4C301B2012C
:104210000E9497AD18160CF443C027E137EB41ED2F
:1042200058EBC501B4010E946CB487FD39C023E08E
:1042300030E046E953E4C501B4010E9497AD181679
:104240007CF119821A821B821C82CE0101966C01BC
:10425000E8A0F9A00AA11BA1A3019201C501B40124
:104260000E94FA7882E00E9404A80E948E7A8091CF
:104270002803809329030E94387861E0832D0E94EF
:1042800046340E94907A73CE111120CF11E018CFDE
:10429000E12E04C0F12EE12E01C0F12E102F1DCF12
:1042A0000E94418589E992E00E94AB83DECF0E94A3
:1042B000E36E5DCE88E50E945C7C81115F9889E5A4
:1042C0000E945C7C81118A988AE50E945C7C88232C
:1042D00029F08091080181708093060185E40E9495
:1042E0005C7C882309F443CE0E940A2540CE5F9867
:1042F0008A98809108018170809306010E940A25A6
:1043000036CE0E94157CAB01BC014093E10F509367
:10431000E20F6093E30F7093E40F84EC9DE00E9442
:10432000096625CE0E94BE8C88E50E945C7C8823AD
:1043300031F05F9A8091720B8E7F8093720B89E5CA
:104340000E945C7C882331F08A9A8091720B8D7F69
:104350008093720B8AE50E945C7C882359F08091DF
:10436000080180958170809306018091720B8B7F8C
:104370008093720B85E40E945C7C882309F4F7CD5E
:104380000E94C524F4CD0E94CE8CF1CD602F83E530
:104390000E94BB6E3CC883E50E94AA7C882391F0F2
:1043A0000E94257C60933305709334058093350516
:1043B0009093360560933B0570933C0580933D05D3
:1043C00090933E0580E50E94AA7C882351F00E94CC
:1043D000257C609333057093340580933505909365
:1043E000360582E50E94AA7C882351F00E94257C34
:1043F00060933705709338058093390590933A059B
:1044000084E50E94AA7C882309F4B1CD0E94257C12
:1044100060933B0570933C0580933D0590933E056A
:10442000A6CD82E40E945C7C8823C1F08091AD021D
:104430009091AE02009739F04AE050E060E070E001
:104440000E94EBAB03C060E070E0CB0160930F050E
:1044500070931005809311059093120583E50E94D7
:104460005C7C882351F00E94257C60933F0570930B
:104470004005809341059093420584E50E945C7C51
:10448000882351F00E94257C609343057093440576
:10449000809345059093460588E50E945C7C8823BF
:1044A00051F00E94257C6093BE117093BF118093E0
:1044B000C0119093C11189E50E945C7C882351F062
:1044C0000E94257C6093C2117093C3118093C41124
:1044D0009093C5118AE50E945C7C8823B1F00E940C
:1044E000257C6093C6117093C7118093C811909377
:1044F000C9112DEC3CEC4CEC5DE30E9497AD181615
:1045000024F08DEC95E00E94AB8385E40E945C7CF6
:10451000882309F42CCD0E94257C6093CA117093E6
:10452000CB118093CC119093CD1121CD0E94418568
:1045300085EE9AE10E94AB8307E415E080E20E94D9
:10454000B626F801608171818281938142E00E94E8
:1045500046278CE20E94B626D80114966D917D9173
:104560008D919C91179742E00E9446278CE20E9411
:10457000B626F801608571858285938543E00E94A7
:104580004627045F1F4FF5E00F351F0711F40C9409
:10459000DF14D4CF0E9476848BE696E00E94AB8332
:1045A000E6CCB7FAB094B7F8B094D7018D929D924B
:1045B000AD92BC9213972CCC0E9476848BE896E047
:1045C0000E94AB83D4CC0C5F1F4FBFEFCB1ADB0A2A
:1045D000E5EAFAE1E017F10709F0EBCB8BE2E82E10
:1045E00083E0F82E10E0F10181919191A191B191B8
:1045F0001F01F70181939193A193B1937F01812FC3
:104600000E9420921F5F133071F70E94907AAFCC06
:10461000F091740BF8A32090750B8090760B70903E
:10462000770B6090780B5090790B40907A0B30901C
:104630007B0BC0907C0BD0907D0BE0907E0BF090BC
:104640007F0B88E50E94AA7C882361F10E94257C6B
:104650005B018C0120E030E046E953EC0E946CB431
:1046600087FD0AC020E030E046E953E4B501C80107
:104670000E9497AD181694F46CE271E084EE96E017
:104680000E9456846CE271E08FED96E00E945684A1
:1046900084E496E00E94AB8310E005C0A8A22B2C16
:1046A000802E712E11E089E50E94AA7C882381F179
:1046B0000E94257C962EA72EB82E092F20E030E0F0
:1046C00046E953EC0E946CB487FD0CC020E030E05A
:1046D00046E953E4692D7A2D8B2D902F0E9497ADDA
:1046E000181694F46CE271E08CEC96E00E9456840B
:1046F0006CE271E08FED96E00E94568484E496E0CF
:104700000E94AB8310E004C0692C5A2C4B2C302E35
:104710008AE50E94AA7C882339F10E94257C6B01DE
:104720007C0120E030E040EA51EC0E946CB487FD4F
:104730000AC020E030E040EA51E4C701B6010E941F
:1047400097AD18168CF46CEE7FEF8AEB96E00E9422
:10475000568464E170E08FED96E00E94568484E414
:1047600096E00E94AB8303CC112309F400CC88A10E
:10477000922DA82DB72D8093740B9093750BA09359
:10478000760BB093770B862D952DA42DB32D8093AA
:10479000780B9093790BA0937A0BB0937B0BC0921C
:1047A0007C0BD0927D0BE0927E0BF0927F0BDFCBE7
:1047B0002DEC3CEC4CEC5DE3C701B6010E946CB4FF
:1047C00087FD10CCC701B60105CCAD960FB6F894A5
:1047D000DEBF0FBECDBFDF91CF911F910F91FF9034
:1047E000EF90DF90CF90BF90AF909F908F907F9091
:1047F0006F905F904F903F902F900895CF92DF92EF
:10480000EF92FF920F931F93CF93DF936C018B0175
:104810007A01EC01CC54DD4F888187FF04C0FB0195
:104820001182108224C02CE02C9DC0012D9D900D82
:1048300011242881AC01420F511D27FD5A9520916A
:104840009B0E30E04217530794F42881AC01420FCD
:10485000511D27FD5A959A01FA01EE0FFF1F2E0FE9
:104860003F1FF901ED5AF14F208127FD19C08881C2
:104870008F5F88832CE02C9DC0012D9D900D11240D
:104880002881AC01420F511D27FD5A9520919B0EA6
:1048900030E042175307BCF428812C3044F113C098
:1048A0002881820F911D27FD9A95FC01EE0FFF1FB5
:1048B0008E0F9F1FFC01ED5AF14F808160E08F77D2
:1048C0000E945961D4CFF80180819181049680348F
:1048D0009C4918F480E49CE904C0F801808191812E
:1048E0000496F701918380838FEF888345C0F80198
:1048F000408151812881BC01620F711D27FD7A958D
:104900009B01FB01EE0FFF1F2E0F3F1FF901ED5A18
:10491000F14F21813281240F351FF701318320832C
:104920002881AC01420F511D27FD5A959A01FA01C9
:10493000EE0FFF1F2E0F3F1FF901ED5AF14F20819F
:1049400027FF1AC02881820F911D27FD9A95FC012F
:10495000EE0FFF1F8E0F9F1FFC01ED5AF14F80815C
:1049600061E08F77DF91CF911F910F91FF90EF90D2
:10497000DF90CF900C945961DF91CF911F910F91EF
:10498000FF90EF90DF90CF900895129A479A089584
:104990005F9A8091720B8E7F8093720B8A9A8091BE
:1049A000720B8D7F8093720B8091080180958170CE
:1049B000809306018091720B8B7F8093720B0C9415
:1049C000C524C42F0E941E380E9476848DE498E08E
:1049D0000E94AB8389EE93E030E6019729F0232F04
:1049E0002A950000E9F7F9CFF89489EE93E038EEC4
:1049F000019729F0232F2A950000E9F7F9CF0E94AB
:104A00001E38CC2319F00E94C82402C00E94C5247D
:104A1000A895FECF1298479808950E942E909091E5
:104A2000A30E9093A20E9093A10E9093A00E94E6E5
:104A300090939F0E20ED33E03093A2052093A105C3
:104A400081110E943B9081E0809376050E94BE8C8C
:104A50008EEF0E94DA790C948E7A9091E50F93FB99
:104A6000882780F993FF06C081E09091C70D9111CE
:104A700001C080E00895109226060895DC01EC91B3
:104A8000F0E0CF01880F991FE80FF91FED5AF14FA1
:104A900080818F7780830895009781F41092900031
:104AA00082E0809391001092950010929400C19A38
:104AB000809171008260809371000895019761F484
:104AC0001092A00082E08093A1001092A5001092A5
:104AD000A40089BB8093720008957F928F929F9269
:104AE000AF92BF92CF92DF92EF92FF920F931F93FC
:104AF000CF93DF93FC019081983108F0CDC06B011A
:104B00007F01892F90E0FC01EE0FFF1F8E0F9F1F8A
:104B1000FC01ED5AF14F80818F770E942F5AF701E7
:104B20001182128280816CE00E94E3B1FCE08F9FD1
:104B3000B001112440E050E09B01240F351FF90122
:104B4000EE0FFF1F2E0F3F1FF901ED5AF14F90811D
:104B500097FD08C04F5F5F4F4C30510569F790E0FB
:104B60000E944C25F7017080C72DD0E08E01000F08
:104B7000111FF801EC0FFD1FED5AF14F8081806885
:104B8000808377FC89C0F0E2CF16F2E0DF060CF0FC
:104B900041C0F701828128E532E0281B310987FDF9
:104BA0003395220F331F220F331F032E000C440BAB
:104BB000550B818168E870E04B01881A910887FDE8
:104BC0009394880C991C880C991C092C000CAA0839
:104BD000BB08D7FC0BC0B601653B710514F064EB54
:104BE00070E0072E000C880B990B03C060E070E0AA
:104BF000CB01281939094A095B090E9478B124EBD5
:104C000030E040E050E00E94AAB1820E931EA41E44
:104C1000B51E01C04601F7E1F71558F1F7012181F2
:104C200088E890E0821B910927FD9395880F991FD2
:104C3000880F991F8816990684F0F701228188E56C
:104C400092E0821B910927FD9395880F991F880F89
:104C5000991F881699060CF4C40102972FB7F8948F
:104C6000C00FD11FCD5AD14F880F991F9A838983C6
:104C70002FBF62E370E080E090E0DF91CF911F9161
:104C80000F91FF90EF90DF90CF90BF90AF909F90EB
:104C90008F907F900C94EC82DF91CF911F910F91B8
:104CA000FF90EF90DF90CF90BF90AF909F908F904C
:104CB0007F9008951F920F920FB60F9211240BB69A
:104CC0000F922F933F934F935F936F937F938F93A5
:104CD0009F93AF93BF93EF93FF9348EA50E064EA4A
:104CE00070E081E090E00E94FE23FF91EF91BF9180
:104CF000AF919F918F917F916F915F914F913F9174
:104D00002F910F900BBE0F900FBE0F901F90189514
:104D10001F920F920FB60F9211240BB60F922F9382
:104D20003F934F935F936F937F938F939F93AF9333
:104D3000BF93EF93FF9348E950E064E970E080E0AF
:104D400090E00E94FE23FF91EF91BF91AF919F9160
:104D50008F917F916F915F914F913F912F910F9024
:104D60000BBE0F900FBE0F901F9018959091C00032
:104D700095FFFCCF8093C60008958F929F92AF92CB
:104D8000BF92EF92FF920F931F93CF93DF93CDB714
:104D9000DEB7A0970FB6F894DEBF0FBECDBF61158A
:104DA00071058105910591F100E0842E912CA12CD3
:104DB000B12C102FEE24E394F12CEC0EFD1EE00E2E
:104DC000F11C07FDFA94A50194010E9488B1F70136
:104DD0006083B901CA010F5F6115710581059105F5
:104DE00041F71F3F31F1E1E0F0E0EC0FFD1FE10F73
:104DF000F11D17FDFA9580818A3010F097E301C00C
:104E000090E3890F0E94B6261150EBCF80E3A09665
:104E10000FB6F894DEBF0FBECDBFDF91CF911F91CB
:104E20000F91FF90EF90BF90AF909F908F900C9458
:104E3000B626A0960FB6F894DEBF0FBECDBFDF91A9
:104E4000CF911F910F91FF90EF90BF90AF909F90E7
:104E50008F900895CF92DF92EF92FF926B017C01C9
:104E600097FF0BC08DE20E94B626F094E094D09498
:104E7000C094C11CD11CE11CF11C4AE0C701B60161
:104E8000FF90EF90DF90CF900C94BD268F929F9271
:104E9000AF92BF92CF92DF92EF92FF92CF936B01CE
:104EA0007C01B42E20E030E0A9010E9497AD87FF7D
:104EB00007C08DE20E94B626F7FAF094F7F8F09456
:104EC000C0E060E070E080E09FE3CB1541F02DECA6
:104ED0003CEC4CEC5DE30E94FDADCF5FF6CF9B0157
:104EE000AC01C701B6010E940CB26B017C010E94AB
:104EF0007FB34B015C014AE00E94BD26CC2389F1BF
:104F0000C501B4010E949CAD9B01AC01C701B60173
:104F10000E940BB26B017C018EE20E94B62620E05B
:104F200030E040E251E4C701B6010E94FDAD4B0103
:104F30005C010E9478B36B01770FEE08FF08C70190
:104F4000B6010E942A27C701B6010E949EAD9B01AF
:104F5000AC01C501B4010E940BB26B017C01C150D0
:104F6000F1F6CF91FF90EF90DF90CF90BF90AF9090
:104F70009F908F9008958DE00E94B6268AE00C9451
:104F8000B626CF93DF93EC018991882319F00E9414
:104F9000B626FACFDF91CF910C94BB278091E60A19
:104FA0009091E70A981759F0E92FF0E0EA51F54F90
:104FB00082819F5F9F779093E70A90E008958FEF3B
:104FC0009FEF08952F923F924F925F926F927F9240
:104FD0008F929F92AF92BF92CF92DF92EF92FF9209
:104FE0000F931F93CF93DF93CDB7DEB72A970FB6FA
:104FF000F894DEBF0FBECDBF8091BB04843008F0B3
:10500000D2C18091BB04843008F0F9C08091E60AD7
:105010009091E70A891B8F7709F4F1C00E94CE278F
:1050200097FDEFCF8A3019F08D3009F0DFC0109274
:10503000BA028091680B9091690BFC01E554FD4F19
:105040001082892B39F01092690B1092680B0BEBD0
:1050500012E003C00E949C3BD4CFF80181918032C2
:1050600011F48F01FACF8E3409F06AC001151105D1
:1050700009F466C068EF77E0C8010E944EAD7C017C
:10508000892B41F06EE470E0C80104960E945AB585
:10509000009709F4C8014AE050E060E070E0019632
:1050A0000E94BDAA4B015C0180916A0B90916B0B31
:1050B000A0916C0BB0916D0B0196A11DB11D8816CE
:1050C0009906AA06BB0631F0EF2821F460E085ECD2
:1050D00097E049C06AE270E0C8010E9489B59C016E
:1050E000009709F1982F901BF12C992339F09150DA
:1050F000F801E90FF11D8081F826F7CF4AE050E072
:1051000060E070E0C90101960E94BDAACF2CD12CAD
:10511000E12CF12C6C157D058E059F0541F060E0BA
:1051200086EA97E020C060E08CE797E01CC08092A0
:105130006A0B90926B0BA0926C0BB0926D0B16C029
:105140008091E50F80FF12C06EE07AE0C8010E94F6
:105150004EAD009729F0FC01838180538A3030F4F2
:1051600060E08CE797E00E94385849C08091BD0408
:105170008130B9F067E470E0C8010E945AB5009729
:1051800081F04AE050E060E070E001960E94BDAA24
:10519000643071058105910520F489EB91E10E944D
:1051A000AB8367E777E0C8010E9415AD892B11F446
:1051B0001092180262E777E0C8010E9415AD892BB2
:1051C00031F441E060E070E08CE793E031C16DE6DE
:1051D00077E0C8010E9415AD892B11F40E940D25BE
:1051E00061E08BEB92E00E947C580BCF28E63BE01D
:1051F0004BEB52E06AEB72E00E94D15702CF8091F4
:10520000E50F82FFD0C01A82198211E04091E10FB0
:105210005091E20F6091E30F7091E40F8091DD0FE8
:105220009091DE0FA091DF0FB091E00F4817590762
:105230006A077B0708F410E000E680E1F82E99E6A3
:10524000E92E8091BB04843008F0ADC01111ABC0D1
:105250008091CC0D9091CD0DA091CE0DB091CF0D40
:105260008093E10F9093E20FA093E30FB093E40FCC
:1052700041E050E0BE016D5F7F4F84EC9DE00E94F5
:105280004A30019719F48B8190E002C08FEF9FEFB5
:105290004090E10F5090E20F6090E30F7090E40FA8
:1052A0008090DD0F9090DE0FA090DF0FB090E00FA8
:1052B00011E0481459046A047B0408F410E08F3F9D
:1052C000FFEF9F0761F4481459046A047B0438F423
:1052D0000E9476848DEF97E00E94AB83B2CF40911D
:1052E00037038A3079F08D3069F0481459046A0424
:1052F0007B0408F490C089819A81009719F0019687
:105300009A83898310921B0389819A81FC01049FEF
:10531000E00DF11D1124E65CFC4F1082892B31F069
:105320001A82198280E00E94675802C00E949C3B4A
:10533000481459046A047B0408F483CF0E94BE8C8D
:1053400084EC9DE00E94C22D8091DC0F882331F116
:1053500081508093DC0FE89EC001112462E0805DE3
:105360009F4E0E94AB67E091DC0F24E0E29FF001CA
:105370001124E45DFF4E408151816281738140932D
:10538000E10F5093E20F6093E30F7093E40F84EC0E
:105390009DE00E9409660E94BD6253CF0E94AE62EA
:1053A000F092BD044ECF0E94959E4B015C0140914E
:1053B000A9025091AA026091AB027091AC02411512
:1053C000510561057105B1F180916E0B90916F0BE4
:1053D000A091700BB091710B840F951FA61FB71F82
:1053E00095018401081B190B2A0B3B0B37FD22C0CA
:1053F0000E9476846091810B7091820B80E397E02C
:105400000E9463848AE00E94B62640E060E070E07B
:1054100080E090E00DC0049FA0011124465C5C4F29
:105420009E012F5F3F4F6BE173E00E94D15709CF80
:105430000E94E1248091010290910202A091030256
:10544000B0910402892B8A2B8B2B09F44DC09091CB
:10545000A20E8091A30E981749F080926E0B909245
:105460006F0BA092700BB092710B3EC00E94959E84
:10547000C0906E0BD0906F0BE090700BF090710BA2
:105480000091010210910202209103023091040266
:105490000C0D1D1D2E1D3F1DDC01CB01801B910B32
:1054A000A20BB30BB7FDA9C28091200381111CC0D0
:1054B00081E0809320035F9A8091720B8E7F8093AE
:1054C000720B8A9A8091720B8D7F8093720B809100
:1054D000080180958170809306018091720B8B7F0B
:1054E0008093720B0E94C52480911C0390911D0330
:1054F000A0911E03B0911F03A5019401281B390B35
:105500004A0B5B0B57FDDFC19091A20E8091A30E59
:10551000981751F0E091A30E38E4E39FF0011124B5
:10552000E158F94F008102C000912606002311F0D6
:1055300010E002C000E010E088E00E942F5A011540
:10554000110511F460E004C00F3F110529F461E07A
:1055500088E00E945961ADC0EBE1FEE0E4918E2F3E
:1055600090E0FC013197E231F10508F09DC08827F9
:10557000EE58FF4F8F4F0C9403B284B5806884BD02
:1055800007BD97C084B5806284BD08BD92C080917C
:1055900080008068809380001093890000938800C9
:1055A00088C08091800080628093800010938B007F
:1055B00000938A007EC08091800088608093800084
:1055C00010938D0000938C0074C08091B0008068AF
:1055D0008093B0000093B3006CC08091B0008062F3
:1055E0008093B0000093B40064C080919000806804
:1055F0008093900010939900009398005AC0809176
:10560000900080628093900010939B0000939A001A
:1056100050C08091900088608093900010939D000E
:1056200000939C0046C08091A00080688093A000F9
:105630008091A0008F7B8093A0001093A90000931D
:10564000A80037C08091A00080628093A0001093D2
:10565000AB000093AA002DC08091A00088608093C9
:10566000A0001093AD000093AC0023C080912001F6
:10567000806880932001109329010093280119C0AC
:105680008091200180628093200110932B01009370
:105690002A010FC08091200188608093200110931F
:1056A0002D0100932C0105C0003811050CF04FCFDF
:1056B00049CF80919F05882309F4F8C0E0903E020D
:1056C000F0903F0200914002109141026091B605B6
:1056D0007091B7056E5F7F4F072E000C880B990BFA
:1056E0000E949EAD9701A8010E9497AD87FDDEC084
:1056F0003090A30E212C1C821D821E828091A20E4E
:10570000831509F467C0832D90E048E4489FF001B9
:10571000499FF00D1124E85CF94F45895689678946
:10572000708D452B462B472B89F4418D528D638D0F
:10573000748D452B462B472B49F4458D568D678D2F
:1057400070A1452B462B472B09F43FC058E4589FC6
:105750009001599F300D1124C901885C994F6C014B
:10576000FC0161817281838194810E94BAB42B0112
:105770003C01F60161A172A183A194A10E949CAD9C
:105780006F83788789879A87F60165A176A187A1BB
:1057900090A50E949CAD9B01AC016F8178858985A5
:1057A0009A850E9406B3A30192010E94FDAD3B01C0
:1057B0006C01222D3C814D815E810E946CB41816D3
:1057C00024F4262C7C82CD82DE8281E0830D8F70D2
:1057D000382E94CF20913602309137024091380212
:1057E00050913902622D7C818D819E810E94FDAD98
:1057F0009701A8010E940CB23B016C0120903A0273
:1058000030903B0240903C0250903D029B01AC0125
:10581000B701C8010E946CB418166CF09101A20186
:10582000B301C6010E946CB418161CF47101820108
:1058300002C0730186014090B6025090B70260909A
:10584000B8027090B9029701A801C301B2010E9489
:105850006CB41816C4F420E037ED43EA5CE3B701FA
:10586000C8010E94FDAD6B017C0128E431EE4AE7DE
:105870005FE3C301B2010E94FDADA70196010E9442
:105880000CB27B018C01C701D8018093B6029093C2
:10589000B702A093B802B093B902B701C8010E9441
:1058A00078B3DC01CB0160E00E94B255F4E68F0EC4
:1058B000911CA11CB11C80921C0390921D03A0920C
:1058C0001E03B0921F030E949C3B8091BD0488235D
:1058D00009F49BC0809105028130A1F08091E50F11
:1058E00080628093E50F81E08093050264EF71E0B0
:1058F00080E090E00E94EC820E94C5628091E50FFA
:1059000083FD7EC00E94959E6B017C018091000208
:10591000882359F18091B002882339F14091210305
:105920005091220360912303709124039701860113
:10593000041B150B260B370B37FD2AC0833079F07B
:105940003CF4813094F00E9441858BE398E00BC0D9
:10595000843059F40E9441858CE098E004C00E9494
:10596000418584E298E00E94AB832091000230E000
:10597000A8EEB3E00E94D4B1C60ED71EE81EF91EF1
:10598000C0922103D0922203E0922303F0922403D9
:105990008091A8028823C9F10E94959E0091A402DB
:1059A0001091A5022091A6023091A702DC01CB0143
:1059B000801B910BA20BB30BB7FD27C00E94959ED5
:1059C0006B017C012091A80230E0A8EEB3E00E94B8
:1059D000D4B1C60ED71EE81EF91EC092A402D09202
:1059E000A502E092A602F092A7028091A40B0E9469
:1059F000CD368AE00E94B62608C01092200374CDEE
:105A00001092CC0E0E9496627DCF2A960FB6F89423
:105A1000DEBF0FBECDBFDF91CF911F910F91FF90E1
:105A2000EF90DF90CF90BF90AF909F908F907F903E
:105A30006F905F904F903F902F9008951F920F921C
:105A40000FB60F9211240F900FBE0F901F90189554
:105A50001F920F920FB60F9211240BB60F922F9335
:105A60008F939F93EF93FF939091C6002091E70A45
:105A7000E091E60A81E08E0F8F77281729F0F0E099
:105A8000EA51F54F9283E82FE093E60AFF91EF91F8
:105A90009F918F912F910F900BBE0F900FBE0F9083
:105AA0001F9018958EBD0DB407FEFDCF08958FEFA2
:105AB0008EBD0DB407FEFDCF8EB5089590916400A4
:105AC0009B7F90936400982F906A96959CBD80FD73
:105AD00003C091E0863009F490E09DBD08950F93D6
